:020000040800F2
:1000000000120020292B00085B840008152B000833
:10001000152B0008152B0008152B00080000000008
:10002000000000000000000000000000F12B0008AC
:10003000152B000800000000912B00081D46000849
:10004000B92D0008B92D0008B92D0008B92D0008F8
:10005000B92D0008B92D0008B92D0008B92D0008E8
:10006000B92D0008B92D0008B92D0008B92D0008D8
:10007000B92D0008B92D0008B92D0008B92D0008C8
:10008000B92D0008B92D0008B92D0008B92D0008B8
:10009000B92D0008B92D0008B92D0008B92D0008A8
:1000A000B92D0008B92D0008B92D0008B92D000898
:1000B000B92D0008B92D0008B92D0008B92D000888
:1000C000B92D0008B92D0008B92D0008B92D000878
:1000D000B92D0008B92D0008B92D0008B92D000868
:1000E000B92D0008B92D0008B92D0008B92D000858
:1000F000B92D0008B92D0008B92D0008B92D000848
:10010000B92D0008B92D0008B92D0008B92D000837
:10011000B92D0008B92D0008B92D0008B92D000827
:10012000B92D0008B92D0008B92D0008B92D000817
:08013000B92D0008B92D0008EB
:1001380081F0004102E000BF83F0004330B54FEA90
:1001480041044FEA430594EA050F08BF90EA020FFD
:100158001FBF54EA000C55EA020C7FEA645C7FEA90
:10016800655C00F0E2804FEA5454D4EB5555B8BFB3
:100178006D420CDD2C4480EA020281EA030382EA24
:10018800000083EA010180EA020281EA0303362DB6
:1001980088BF30BD11F0004F4FEA01314FF4801C89
:1001A8004CEA113102D0404261EB410113F0004F9B
:1001B8004FEA03334CEA133302D0524263EB430352
:1001C80094EA050F00F0A780A4F10104D5F1200EF0
:1001D8000DDB02FA0EFC22FA05F2801841F100014B
:1001E80003FA0EF2801843FA05F359410EE0A5F11F
:1001F80020050EF1200E012A03FA0EFC28BF4CF050
:10020800020C43FA05F3C01851EBE37101F0004505
:1002180007D54FF0000EDCF1000C7EEB00006EEB12
:100228000101B1F5801F1BD3B1F5001F0CD349089C
:100238005FEA30004FEA3C0C04F101044FEA4452F3
:1002480012F5800F80F09A80BCF1004F08BF5FEA7A
:10025800500C50F1000041EB045141EA050130BD5A
:100268005FEA4C0C404141EB0101013C28BFB1F56C
:10027800801FE9D291F0000F04BF01460020B1FAB7
:1002880081F308BF2033A3F10B03B3F120020CDA8A
:100298000C3208DD02F1140CC2F10C0201FA0CF068
:1002A80021FA02F10CE002F11402D8BFC2F1200CCD
:1002B80001FA02F120FA0CFCDCBF41EA0C01904083
:1002C800E41AA2BF01EB0451294330BD6FEA0404CC
:1002D8001F3C1CDA0C340EDC04F11404C4F12002B7
:1002E80020FA04F001FA02F340EA030021FA04F3C9
:1002F80045EA030130BDC4F10C04C4F1200220FA20
:1003080002F001FA04F340EA0300294630BD21FA5D
:1003180004F0294630BD94F0000F83F4801306BF23
:1003280081F480110134013D4EE77FEA645C18BF17
:100338007FEA655C29D094EA050F08BF90EA020FAE
:1003480005D054EA000C04BF1946104630BD91EAA6
:10035800030F1EBF0021002030BD5FEA545C05D1A9
:100368004000494128BF41F0004130BD14F58004E8
:100378003CBF01F5801130BD01F0004545F0FE415C
:1003880041F470014FF0000030BD7FEA645C1ABF91
:10039800194610467FEA655C1CBF0B46024650EAC8
:1003A800013406BF52EA033591EA030F41F40021F4
:1003B80030BD00BF90F0000F04BF0021704730B57A
:1003C8004FF4806404F132044FF000054FF000014F
:1003D80050E700BF90F0000F04BF0021704730B510
:1003E8004FF4806404F1320410F0004548BF4042E5
:1003F8004FF000013EE700BF42004FEAE2014FEA3A
:1004080031014FEA02701FBF12F07F4393F07F4F14
:1004180081F06051704732F07F4208BF704793F017
:100428007F4F04BF41F40021704730B54FF460742A
:1004380001F0004521F000411CE700BF50EA01022D
:1004480008BF704730B54FF000050AE050EA0102D6
:1004580008BF704730B511F0004502D5404261EB46
:1004680041014FF4806404F132045FEA915C3FF487
:10047800D8AE4FF003025FEADC0C18BF03325FEA24
:10048800DC0C18BF033202EBDC02C2F1200300FAD5
:1004980003FC20FA02F001FA03FE40EA0E0021FAFA
:1004A80002F11444BDE600BF80F0004002E000BF46
:1004B80081F0004142001FBF5FEA410392EA030F47
:1004C8007FEA226C7FEA236C6AD04FEA1262D2EB91
:1004D8001363C1BFD218414048404140B8BF5B4296
:1004E800192B88BF704710F0004F40F4000020F02F
:1004F8007F4018BF404211F0004F41F4000121F045
:100508007F4118BF494292EA030F3FD0A2F101028E
:1005180041FA03FC10EB0C00C3F1200301FA03F1CC
:1005280000F0004302D5494260EB4000B0F5000FEF
:1005380013D3B0F1807F06D340084FEA310102F1AE
:100548000102FE2A51D2B1F1004F40EBC25008BF60
:1005580020F0010040EA03007047490040EB00002A
:10056800013A28BFB0F5000FEDD2B0FA80FCACF12B
:10057800080CB2EB0C0200FA0CF0AABF00EBC25058
:1005880052421843BCBFD0401843704792F0000F46
:1005980081F4000106BF80F400000132013BB5E799
:1005A8004FEA41037FEA226C18BF7FEA236C21D00F
:1005B80092EA030F04D092F0000F08BF0846704774
:1005C80090EA010F1CBF0020704712F07F4F04D142
:1005D800400028BF40F00040704712F100723CBF55
:1005E80000F50000704700F0004343F0FE4040F47F
:1005F800000070477FEA226216BF08467FEA23633D
:100608000146420206BF5FEA412390EA010F40F427
:10061800800070474FF0000304E000BF10F0004373
:1006280048BF40425FEA000C08BF704743F096435A
:1006380001464FF000001CE050EA010208BF704775
:100648004FF000030AE000BF50EA010208BF7047FC
:1006580011F0004302D5404261EB41015FEA010C11
:1006680002BF84460146002043F0B64308BFA3F109
:100678008053A3F50003BCFA8CF2083AA3EBC253EB
:1006880010DB01FA02FC634400FA02FCC2F120020A
:10069800BCF1004F20FA02F243EB020008BF20F041
:1006A8000100704702F1200201FA02FCC2F12002A7
:1006B80050EA4C0021FA02F243EB020008BF20EA9C
:1006C800DC7070474FF0FF0C1CEAD0521EBF1CEACA
:1006D800D15392EA0C0F93EA0C0F6FD01A4480EAB8
:1006E800010C400218BF5FEA41211ED04FF00063A1
:1006F80043EA501043EA5111A0FB01310CF00040CD
:10070800B1F5000F3EBF490041EAD3715B0040EAF2
:10071800010062F17F02FD2A1DD8B3F1004F40EBC2
:10072800C25008BF20F00100704790F0000F0CF095
:10073800004C08BF49024CEA502040EA51207F3A59
:10074800C2BFD2F1FF0340EAC250704740F4000034
:100758004FF00003013A5DDC12F1190FDCBF00F025
:1007680000407047C2F10002410021FA02F1C2F1D3
:10077800200200FA02FC5FEA310040F1000053EA6F
:100788004C0308BF20EADC70704792F0000F00F0BD
:10079800004C02BF400010F4000F013AF9D040EAC3
:1007A8000C0093F0000F01F0004C02BF490011F457
:1007B800000F013BF9D041EA0C018FE70CEAD15355
:1007C80092EA0C0F18BF93EA0C0F0AD030F0004CD5
:1007D80018BF31F0004CD8D180EA010000F0004089
:1007E800704790F0000F17BF90F0004F084691F047
:1007F800000F91F0004F14D092EA0C0F01D1420281
:100808000FD193EA0C0F03D14B0218BF084608D149
:1008180080EA010000F0004040F0FE4040F4000093
:10082800704740F0FE4040F4400070474FF0FF0C26
:100838001CEAD0521EBF1CEAD15392EA0C0F93EA6D
:100848000C0F69D0A2EB030280EA010C49024FEABF
:10085800402037D04FF0805343EA111143EA101378
:100868000CF000408B4238BF5B0042F17D024FF430
:10087800000C8B4224BF5B1A40EA0C00B3EB510F0B
:1008880024BFA3EB510340EA5C00B3EB910F24BFF4
:10089800A3EB910340EA9C00B3EBD10F24BFA3EB79
:1008A800D10340EADC001B0118BF5FEA1C1CE0D141
:1008B800FD2A3FF650AF8B4240EBC25008BF20F0F4
:1008C800010070470CF0004C4CEA50207F32C2BF48
:1008D800D2F1FF0340EAC250704740F400004FF0E5
:1008E8000003013A37E792F0000F00F0004C02BF16
:1008F800400010F4000F013AF9D040EA0C0093F0E0
:10090800000F01F0004C02BF490011F4000F013B39
:10091800F9D041EA0C0195E70CEAD15392EA0C0FA1
:1009280008D142027FF47DAF93EA0C0F7FF470AFD9
:10093800084676E793EA0C0F04D14B023FF44CAF1C
:1009480008466EE730F0004C18BF31F0004CCAD1B1
:1009580030F000427FF45CAF31F000437FF43CAFED
:100968005FE700BF53B94AB9002908BF00281CBF78
:100978004FF0FF314FF0FF3000F00CB8ADF1080C2C
:100988006DE904CE00F010F8DDF804E0DDE902239B
:1009980004B07047704700BF034613F8012B002AC4
:1009A800FBD1181A013870472DE9F04786468C4666
:1009B8000846089E154674461946002B40F0C2802A
:1009C8008542B2FA82F245D94AB1C2F1200300FA4F
:1009D80002FC2EFA03F3954043EA0C0C94404FEACC
:1009E800154EA8B2BCFBFEF8230C0EFB18CC08FB76
:1009F80000F943EA0C43994528D9EB1808F1FF3769
:100A080004D2994502D9A8F102072B44A3EB0903A4
:100A1800A4B2B3FBFEFC0EFB1C330CFB00F044EA53
:100A28000344A04214D92C190CF1FF3304D2A0427C
:100A380002D9ACF102032C44241A43EA07401EB140
:100A4800D440002334607360BDE8F0874746DDE793
:100A58006346F1E792BB431B01214FEA154EAFB243
:100A6800B3FBFEFC200C0EFB1C330CFB07F840EA22
:100A78000343984562D9EB180CF1FF3004D298452E
:100A880002D9ACF102002B44A3EB0803A4B2B3FBD8
:100A9800FEFC0EFB1C330CFB07F744EA0344A74299
:100AA8004ED92C190CF1FF3304D2A74202D9ACF16C
:100AB80002032C44E41B43EA0040C0E7C2F12003D0
:100AC80020FA03F1954090402EFA03F303434FEACE
:100AD800154EAFB2B1FBFEFC0EFB1C10190C0CFB43
:100AE80007F841EA0041884504FA02F422D9691856
:100AF8000CF1FF3004D2884502D9ACF10200294438
:100B0800A1EB08019BB2B1FBFEFC0EFB1C110CFB18
:100B180007F743EA01439F420ED9EB180CF1FF3166
:100B280004D29F4202D9ACF102012B44DB1B41EAFB
:100B3800004192E76046E3E76146F7E76046A3E7CE
:100B48006346B7E7834206D916B9002108467BE712
:100B5800C6E900E0F9E7B3FA83F78FB9834201D316
:100B6800724508D8BEEB020460EB030301209C46E3
:100B78001EB9002168E73846FAE7C6E9004CF8E7ED
:100B8800C7F1200CBB4022FA0CF41C432EFA0CF1DE
:100B980020FA0CF3B84001434FEA14490EFA07F55E
:100BA800B3FBF9F81FFA84FE09FB18300B0C08FB9D
:100BB8000EFA43EA00439A4502FA07F240D9E318CD
:100BC80008F1FF3004D29A4502D9A8F10200234463
:100BD800A3EB0A0389B2B3FBF9F809FB183308FB46
:100BE8000EFE41EA03418E452CD9611808F1FF3306
:100BF80004D28E4502D9A8F10203214443EA0040F9
:100C0800A0FB0298A1EB0E014145CE46434602D314
:100C180006D14D4504D2B9EB020E68EB0403013846
:100C2800002EA6D0B5EB0E0261EB030101FA0CFC15
:100C380022FA07F34CEA0303F940C6E9003198E7C2
:100C48004046C5E74346D9E710B582B001230DF108
:100C580007020D2107F0A8F9041E10DB1A229DF8DF
:100C680007100C4807F074FA9DF807301A2B0BD1BF
:100C7800094807F06DFA0024204602B010BD21464D
:100C8800064807F065FAF7E7054807F061FA6FF0DC
:100C98000404F1E798A40008C0A4000878A4000898
:100CA800F0A40008F0B583B00F4616461D4606238B
:100CB8006A46012107F078F9041E1BDB9DF8002025
:100CC8009DF8013043EA02239B083B809DF80230DF
:100CD8009DF8031041EA0321890831809DF804300A
:100CE8009DF8052042EA032292082A800024204623
:100CF80003B0F0BD2146024807F02AFAF7E700BF23
:100D080014A5000830B583B00546006808F007FD53
:100D180000284BD0A988384807F01AFA2846FFF768
:100D280093FF041E48DB01230DF107022A21284600
:100D380007F03AF9041E45DB9DF807102F4807F025
:100D480007FA9DF8072002F0FE028DF807202A21F5
:100D5800284607F039F9041E39DB6420002105F024
:100D6800B7F99DF8072042F001028DF807202A21E3
:100D7800284607F029F9041E2EDB6420002105F01F
:100D8800A7F901230DF107022A21284607F00CF9DB
:100D9800041E26DB9DF80710194807F0D9F99DF8BD
:100DA800073013F0010F21D0002408E0154807F0A0
:100DB800CFF96FF0120402E0134807F0C9F9204692
:100DC80003B030BD2146114807F0C2F9F7E72146C4
:100DD8000F4807F0BDF9F2E721460E4807F0B8F9C9
:100DE800EDE721460C4807F0B3F9E8E70B4807F0B0
:100DF800AFF96FF00404E2E748A50008ACA50008C5
:100E080030A6000830A500086CA500088CA50008CD
:100E1800C8A50008ECA500080CA600084CA6000808
:100E280030B58FB0324807F093F93248FFF76AFFC0
:100E3800011E0CDB00212F4807F0ECF800280CDB22
:100E48002D4807F085F92D4807F082F941E02C4834
:100E580007F07EF900200FB030BD2A4807F078F976
:100E6800F8E70BAA0021BDF9360007F0BCF80AAA7A
:100E78000021BDF9340007F0B6F809AA0021BDF930
:100E8800320007F0B0F80B98FFF7B6FA04460D46A3
:100E9800BDF932300693BDF934300593BDF93630CB
:100EA80004930998FFF7A8FACDE902010A98FFF719
:100EB800A3FACDE9000122462B46134807F048F96A
:100EC8000021124807F044F941F28830002105F06A
:100ED800FFF80DF132030DAA0DF136010548FFF7B1
:100EE800E1FE011EBDDA0A4807F032F9ECE700BF5F
:100EF80074A6000884A70008E0A600080CA700084C
:100F08009CA60008C0A6000838A7000870A700081B
:100F180014A7000870B5B2F5802F1FD20346042A23
:100F28002CD9043AC81D20F007000A4422F0070211
:100F3800121AD508172A31D9186085600023C360B2
:100F4800B5FA85F1C1F1200EC1F124018900CE1D49
:100F5800F1084B1CAB4231D8002345E0344C40F239
:100F6800132322463349344807F009F9334807F078
:100F780006F940F21321204607F0F8F82C4C40F20D
:100F88001A2322462E492C4807F0F9F82D4807F075
:100F9800F6F840F21A21204607F0E8F8244C40F20F
:100FA800232322462849244807F0E9F8254807F072
:100FB800E6F840F22321204607F0D8F81C4C4FF4FD
:100FC8000E73224621491C4807F0D9F81D4807F03E
:100FD800D6F84FF40E71204607F0C8F803F1040C58
:100FE800002440F82C4001337345F7DB4C00A4B2D1
:100FF80044804FF0000CA0F800C044F00104448085
:101008006B1A4FEA430E26F00704A51C20F805E0EA
:10101800015322F00704951C20F805C0024403532D
:10102800538843F00103538007F049F870BD00BFAF
:101038008CA7000880A80008C4A7000898A8000882
:10104800B0A80008D4A80008F0A800081CA9000847
:101058002DE9F04F91B005920393134602F0040274
:101068000092C3F3C20210F00303019340F06E82B2
:1010780080468A460132041D002850D0B8F1000F7E
:1010880005D0A4EB08030433534500F26282039BA6
:101098005D1E019B04930693029300264FF0FF3BCD
:1010A8000427B946B8F1000F01D0039B2360531EF3
:1010B8000793002A40F35F81059B13F0020229D0B1
:1010C8000120A4EB08018B081AB1B1F5007F80F06C
:1010D8006681029A0F2A00F27281B8F1000F00F0BF
:1010E8008281DBB2029901F140026A4402F8103CA5
:1010F80002F820BC002800F0728163F07F0301F140
:1011080040026A4402F8103C049B01330493029B9A
:101118000133029304340022CC4640463DE001F0FE
:10112800070A5444CAF1080AA8E7002634E0002652
:1011380032E0002630E00827BC462DE025292BD1D7
:101148000BF1010B01260427BC4625E04729EED800
:101158002A2914D32A39C9B24FF0010E0EFA01F127
:101168004FF6DA7E11EA0E0F16D111F0625F40F0E9
:10117800C18011F0010F40F08D8000260CE0252978
:1011880003D10BF1FF3B002606E001D9002603E05E
:10119800202901D02329CCD11D466B1C6978002950
:1011A80000F04C81002EC9D07A29BED84C29CDD365
:1011B8004C392E2962D80FF2080E5EF821F000BFD4
:1011C800A111000885120008851200088512000880
:1011D800851200088512000885120008851200088B
:1011E800851200088512000885120008851200087B
:1011F800951200088512000885120008851200085B
:10120800851200088512000885120008851200085A
:1012180085120008FD1200088512000895120008C2
:1012280095120008FD120008FD120008FD120008C2
:10123800A1110008951200083F1100088512000846
:10124800A11100088512000859130008951200081A
:101258005913000885120008851200086113000858
:101268008F120008951200088512000885120008E0
:1012780095120008851200088912000800268BE7DD
:101288000427BC4688E70427BC4685E729786C29EB
:1012980024D000263C44013CB4FBF7F407FB04F4DB
:1012A80020B1211A6144514500F25681002A58D1D3
:1012B800BCF1040F00F0A880BCF1080F40F0AC802E
:1012C8001A99073121F0070101F108051A95D1E9AA
:1012D800008908B1C4E9008908345DE713F8021CE5
:1012E8006C2903D000260427BC46D3E7002608272C
:1012F800BC46CFE729784C291AD01A99073121F032
:10130800070101F108061A96D1E90067073424F0AD
:10131800070440B1211A0831514513D829784C29BE
:1013280013D0C4E90067083400260827BC4633E711
:101338001A99073121F0070101F108061A96D1E937
:101348000067E3E76FF01B00FDE0C4E90067EAE728
:1013580000260427BC469DE7324600260427BC46E3
:1013680098E7E14680461A9A111D1A91126803926D
:10137800079A1D4696E67D4B039A9A4204D37C4B06
:101388009A420AD3002300E00023002B7FF494AE96
:10139800059B03F00202002093E60123F5E7754C54
:1013A8004FF41F7322467449744806F0E8FE7448E7
:1013B80006F0E5FE4FF41F71204606F0D7FE6D4C8F
:1013C80040F2812322466C496C4806F0D8FE6D48ED
:1013D80006F0D5FE40F28121204606F0C7FE069BA6
:1013E8000133069393E610B10AF1010A8FE6009BD8
:1013F80013B10AF1020A8AE60398FFF7CDFA0AEB5D
:10140800000303F1020A82E61A990D1D1A9509686C
:1014180000B121600434BFE6E146564C40F2C623D1
:1014280022465549554806F0AAFE4946564806F050
:10143800A6FE40F2C621204606F098FE8046231AF2
:10144800B3F5806F13D210B3002202609B080370BB
:10145800009B03B3069BC370049B88F802309BBBB8
:10146800019DDDF80890DDF810B0039F4DE0414C78
:1014780040F2D22322464049404806F080FE4348C5
:1014880006F07DFE40F2D221204606F06FFE53445E
:10149800A3F1080057E0069B4370DDE7013398424B
:1014A800DED903F140026A4412F8101C12F9102C1C
:1014B800002AF3DA01F07F01A4EB08020132524559
:1014C8004DD804F8011BE9E7019B0298E7E7009B68
:1014D80043B305F140036B4413F8203C04F8013B87
:1014E800019EA4EB08033344013353453AD805F170
:1014F80040036B4413F8103C04F8013B324639466C
:10150800204608F020FA34440135A94519D9BBF121
:10151800000FDCD005F140036B4413F9103C002B9D
:10152800D5DAF1E705F140036B4413F8103C58F89D
:101538002370002248F823203846FFF72DFA461C6E
:10154800CFE7A4EB080011B0BDE8F08F6FF00D00F5
:10155800F9E76FF01B00F6E76FF01B00F3E76FF099
:101568001B00F0E76FF01B00EDE700BF089D0008C7
:101578006CCA000848A9000890AC0008C4A7000875
:1015880090A90008B4A90008D0A90008E8A9000893
:10159800014B1860704700BF0000002080B5054669
:1015A8000E461746984604F04DFE034608F09EFB8B
:1015B8000446DFF8189049F800304246394630466C
:1015C800A84754F8090001F0C5FA00BF0800000058
:1015D800034A536843F0020353600020704700BF7A
:1015E800002004E010B5EFF31184102383F3128870
:1015F800BFF36F8F224805F0C1F858B1204805F0B5
:10160800E7F8204B1B68E3B91F4A136843F480735B
:1016180013600FE01D4C882322461D491D4806F023
:10162800AEFD17491C4806F0AAFD8821204606F0A1
:101638009DFD33B9144B1B6813F48073F9D0012353
:10164800F7E7104A1368013313600D4805F0A6F850
:1016580020B184F31188BFF36F8F10BD0B4C4FF48A
:101668009A7322460D490B4806F089FD04490C4837
:1016780006F085FD4FF49A71204606F077FD00BF0D
:10168800500200204C0200200004005814AA000850
:1016980044AA0008C4A700085CAA000874AA0008A5
:1016A8008CAA000810B584B0EFF31184102383F3DB
:1016B8001288BFF36F8F2D4805F060F8F8B12B48FA
:1016C80005F086F82A4B1B6843BB2A4B0122BFF35F
:1016D8005B8F53E8001F002903D143E8002000284E
:1016E800F7D1BFF35B8F1FD1234B029300200190EA
:1016F800009003460222214906F050FD14E0204CD8
:10170800882322461F49204806F039FD17491F48FB
:1017180006F035FD8821204606F028FD012B0DD066
:10172800134A1368013B1360104805F037F858B1A5
:1017380084F31188BFF36F8F04B010BD144A136887
:1017480023F480731360EBE70D4C4FF49A73224631
:1017580010490D4806F013FD04490F4806F00FFD27
:101768004FF49A71204606F001FD00BF5002002098
:101778004C02002048020020A4AA00089CA10008EE
:1017880014AA000844AA0008C4A700085CAA000814
:101798000004005874AA00088CAA0008084B1A68AC
:1017A80042F400721A601A6842F480621A601A6879
:1017B80042F480721A60034B034A1A60704700BFF4
:1017C800004000584000002000093D0010B1436867
:1017D8005879704710B5064C40F235132246054932
:1017E800054806F0CCFC40F23511204606F0BEFC58
:1017F800E8AA000820AB0008C4A7000810B1436895
:101808001971704710B5054CE12322460449054873
:1018180006F0B5FCE121204606F0A8FCE8AA00087D
:1018280020AB0008C4A7000810B540B104460368FF
:10183800DB6803B19847636801229A7110BD054CB3
:101848008C2322460449054806F099FC8C21204641
:1018580006F08CFCE8AA000820AB0008C4A7000822
:1018680010B520B10268126962B1904710BD064CEC
:10187800A02322460549064806F081FCA0212046FF
:1018880006F074FC0020F1E7E8AA000820AB000885
:10189800C4A7000810B518B102689268904710BD37
:1018A800054CD22322460549054806F068FCD2219A
:1018B800204606F05BFC00BFE8AA000820AB000841
:1018C800C4A7000810B520B171B10268126890472A
:1018D80010BD0B4CB42322460A490B4806F04FFCB6
:1018E800B421204606F042FC054CB52322460749A0
:1018F800054806F044FCB521204606F037FC00BF39
:10190800E8AA000820AB0008C4A7000838AB000804
:1019180038B50546144C00E01034144B9C4212D8DC
:10192800124B9C421FD22046FFF750FF0028F3D0ED
:101938002946204606F043FC0028EDD029462046DB
:10194800FFF7C0FFE8E70A4C4FF400732246094945
:10195800094806F014FC094806F011FC4FF4007120
:10196800204606F003FC38BDACA10008BCA1000865
:101978004CAB00087CAB0008C4A70008A0AB00086B
:1019880008B507F0DCFF0022431819D213440D4AAA
:10199800A2FB03CE2EF0030C0CEB9E0CA3EB0C0366
:1019A800C01A61F100014FF0CC3300FB03F302FBD6
:1019B8000133A0FB02021344400840EAC37008BD8B
:1019C8000122E3E7CDCCCCCC2DE9F0410746054612
:1019D800EDB195FAA5F6B6FA86F60E4C04EB0614A8
:1019E8000123B3406FEA030825EA0305237B002B94
:1019F800EED02046FFF734FF0028E9D107EA0807B0
:101A0800636804221968204606F008FCE0E73846B7
:101A1800BDE8F081ACA100082DE9F041314B324A14
:101A28009B1A8F2B12D880460F46304BBFF35B8F23
:101A380053E8006F721C43E800210029F8D1BFF376
:101A48005B8F002E4AD1284C002514E0284C4FF417
:101A5800A67322462749284806F091FB4FF4A67141
:101A6800204606F083FB636804221968204606F0C6
:101A7800D5FB013510341B4B9C4211D8194B9C42A5
:101A88001ED2237B002BF4D02046FFF7CDFE204644
:101A9800FFF7E6FE0028E6D00123AB401E43E8E747
:101AA800134C4FF4AC7322461449134806F067FBF5
:101AB800134806F064FB4FF4AC71204606F056FB61
:101AC800B8F1000F0BD056B13046FFF77DFF064640
:101AD800002FF8D00A2006F079FBF4E700263046FC
:101AE800BDE8F081BCA10008ACA10008600200209C
:101AF8004CAB0008C0AB0008C4A700087CAB0008CA
:101B0800A0AB0008014B53F820007047F0AB000869
:101B180048B108B5054A1060054B1960084600F041
:101B28004FFB002008BD6FF015007047040000202F
:101B38005402002010B50023164A1370164A136089
:101B4800164A13604FF47A711548FFF7E1FF154CF8
:101B580008E01449611A09110131C9B22046FFF79A
:101B68004DFE1034104B9C4203D80F4B9C42F0D3CF
:101B780010BD0E4C40F2271322460D490D4806F0C1
:101B8800FEFA0D4806F0FBFA40F22711204606F04F
:101B9800EDFA00BF75040020580200205C02002006
:101BA80089190008ACA10008BCA100084CAB0008CA
:101BB8007CAB0008C4A70008A0AB0008174B1B7833
:101BC80003B1704710B500210120FFF725FF144C21
:101BD80000E01034134B9C420BD8124B9C4218D295
:101BE8002046FFF7F3FD0028F3D02046FFF752FE0A
:101BF800EFE70D4C40F2C51322460C490C4806F09D
:101C0800BEFA0C4806F0BBFA40F2C511204606F0B1
:101C1800ADFA024B01221A7010BD00BF75040020F6
:101C2800ACA10008BCA100084CAB00087CAB0008C4
:101C3800C4A70008A0AB0008014B01221A70704726
:101C4800740400200D4BBFF35B8F53E8001F013174
:101C580043E80012002AF8D1BFF35B8F00B9704740
:101C6800074BBFF35B8F53E8001F013943E80012AD
:101C7800002AF8D1BFF35B8FF1E700BF58020020BC
:101C88005C02002010B50446044B1B689847A0600E
:101C98002146034806F095FA10BD00BF0400002055
:101CA8006400002028B142681160436801225A711B
:101CB800704710B5064C4FF48D7322460549064807
:101CC80006F05DFA4FF48D71204606F04FFA00BF1A
:101CD800E8AA000820AB0008C4A700080248034B84
:101CE800C01AC008704700BFACA1000834A10008A2
:101CF80010B50C46FFF7F2FFA04203D9024B53F888
:101D0800340010BD0020FCE734A100082DE9F04F95
:101D180087B004AF81460D4690461E46D7F830B0CE
:101D2800D7F838A0BAF1000F28D0FB6B7B6000937E
:101D380053467A6B10210020FFF78AF9002810DB40
:101D4800B0F5006F1BD340F2FF7303932B4B029344
:101D580000200190009003460222294906F07DFAEE
:101D68003BE0284C40F2651322462749274806F0F5
:101D780006FA40F26511204606F0F8F900200146FF
:101D880000EB0B03173300246FF300046FF34104D7
:101D98006FF3820469F3C50468F3881460F353246D
:101DA8006BF31F5423F00703ADEB030D0DF110087F
:101DB8006B4613F120000AD0BAF1000F07D0FB6B75
:101DC800009353467A6BFFF743F9002809DB334643
:101DD80022462946404606F029FA0C37BD46BDE89A
:101DE800F08F084C4FF4C47322460749074806F0A1
:101DF800C6F94FF4C471204606F0B8F994AC00084F
:101E080064A100085CAC000888AC0008C4A70008FE
:101E1800406820B1034BC01A40F3CF0070474FF021
:101E2800FF30704734A100080EB400B582B00146F7
:101E380003AB53F8042B0193034801F05BFA02B09B
:101E48005DF804EB03B07047AF82000810B584B0AA
:101E580011F0440F05D01A4B1B6833B9002004B0A9
:101E680010BD1849FFF7E0FFF9E717490968B2FB09
:101E7800F1F2B2FBF3FC03FB1C224FF47A7E0EFB5B
:101E880002F2B2FBF3F403FB14210EFB01F1B1FBE8
:101E9800F3F10E4AA2FB0C32D20A4FF4616303FB42
:101EA80012CC0B4BA3FB0CE35B0902910194C3EB2F
:101EB8000311ACEB810100910649FFF7B5FFCEE7AE
:101EC80068020020CCAC000864020020C5B3A291CF
:101ED80089888888D8AC000861B108B52AB1064A53
:101EE80052F8232012B9054A00E0044A0449FFF7D2
:101EF8009BFF08BD704700BF9CAD0008F4AC00080C
:101F0800FCAC00082DE9F04105461746069EDDF8B1
:101F18001C8081B900242EB1324611492846FFF7AA
:101F280083FF0444B8F1000F14D06FB1099B042B50
:101F380013D00C4909E00C4B099A53F822200B499D
:101F4800FFF772FF0446E6E7064942462846FFF7D0
:101F58006BFF04442046BDE8F0810549F5E700BF62
:101F680014AD000804AD0008B0AD00080CAD0008C1
:101F780000AD00082DE9F04F87B0049205939DF855
:101F88004C60042E30D805460C4601F0020B01F0D7
:101F9800010AC1F3C00801F4807906F03DF9024650
:101FA80078B31C492846FFF73FFF0746BBF1000FEF
:101FB80029D132465146284606F093F9B9F1000F67
:101FC80001D0002311930396129B0293119B019356
:101FD800109B00930023049A41462846FFF792FF7E
:101FE800384407B0BDE8F08F0B4C40F24623224638
:101FF8000A490B4806F0C3F840F24621204606F08D
:10200800B5F80027D2E7059A21462846FFF71EFFB4
:102018000744CEE754AD000818AD000848AD0008E5
:10202800C4A7000811F0100F0BD108B511F0200F4C
:1020380003D00449FFF7F8FE08BD0349FFF7F4FE93
:10204800FAE77047E0B5000858AD00082DE9F041FF
:1020580005460F46164698460699FFF7E3FF002403
:10206800444505DA24492846FFF7DEFE0134F7E740
:10207800002409E020492846FFF7D6FE0BE01F4957
:102088002846FFF7D1FE01340F2C0CDC002C02DDB2
:1020980014F0070FEED0B442F1D23A5D1849284641
:1020A800FFF7C2FEEFE717492846FFF7BDFE0024F9
:1020B80009E011492846FFF7B7FE0BE01249284608
:1020C800FFF7B2FE01340F2C13DC002C02DD14F0F4
:1020D800070FEED0B44207D23A5D0C4B9B5C13F06D
:1020E800970FEBD12E22E9E703492846FFF79CFE1C
:1020F800E8E7BDE8F08100BF10AD000864AD000856
:102108005CAD000868AD00086CAD00085CC900084B
:102118002DE9F04184B004469DF82C500C9F0E9E8A
:10212800A5B9012B20D020484FF0000837B13B4615
:1021380022461E4905F0D6FF002819DB2EBB6DBBD1
:10214800204606F099F804B0BDE8F08103950A9896
:102158000290019300920B4600220F992046FFF748
:1021680009FF80461248E1E711484FF00008DDE713
:10217800104C4FF4287322460F49104805F0FFFF12
:102188004FF42871204605F0F1FF0F9B009343465A
:1021980032460D99204606F0BCF8D0E72A460F993A
:1021A800204606F0AAF8CBE7CD820008FD320008E9
:1021B800AF82000818AD000870AD0008C4A7000879
:1021C800074B01221A6004E04008054A13685B00C7
:1021D8001360044B9842F7D8034B1860704700BF50
:1021E8006402002040420F006802002070B50646D5
:1021F8000D46002405E0315D044883685B68984714
:102208000134AC42F7D3284670BD00BF689E000871
:1022180010B543681C68094807F081FA18B12368AB
:102228005B685C6010BD064C992322460549064848
:1022380005F0A5FF9921204605F098FF689E000843
:10224800C4AD000804AE0008C4A70008014B036031
:102258000020704774AE000808B50348034A121AF4
:10226800002106F0D9F808BDA80000207804002055
:1022780008B50648064A121A064906F0D1F8064873
:10228800064A121A064906F0CBF808BD00000020DD
:10229800A40000206CCA00080000002000000020F4
:1022A8006CCA000870B586B0054603684268816844
:1022B8001C4E0591049203931B4B02930024019436
:1022C8000094234601223146204606F0ADF8EB681B
:1022D8002A696969059104920393144B0293019446
:1022E8000094234601223146204606F09DF8EB690A
:1022F80003930F4B02930194009423460122314625
:10230800204606F091F8AB6903930A4B02930194B7
:102318000094234601223146204606F085F806B08F
:1023280070BD00BF84A1000874AE0008A4AE000808
:10233800D4AE0008E4AE000830B585B004460D46BA
:1023480011B10846FFF7AEFF012C05D029462046FB
:1023580002F020FC05B030BDEFF30583103B03937A
:10236800054B029300200190009003460122034987
:1023780006F05AF8EAE700BF14AF000884A1000885
:1023880030BFFFF7FDBF00BF38B50446054D2A46EC
:10239800054907F0D8FA054A0021601907F0E1FA63
:1023A80038BD00BF00000000BCA100080400000008
:1023B80070B50646054D064B1D444C1B2046FFF7DD
:1023C800E3FF083C346705F1080070BD0000000019
:1023D80004000000054B5A699B689A4204D0044ADD
:1023E800536843F080535360704700BF380400209F
:1023F80000ED00E081690D4B5A6942F480725A6120
:10240800BFF34F8FBFF36F8F31F8021C5A6922F464
:1024180080725A61BFF34F8FBFF36F8F4DF602730F
:10242800994201D0002070470120704700ED00E07C
:1024380010B584B000241C7002F07F44B4F17F4FC3
:1024480019D102F00C04082C05D012F0080F0FD097
:10245800084604B010BD094B02930024019400946F
:10246800234601220649204605F0FBFF2046F0E7F7
:1024780001221A70EDE70020EBE700BF28AF000843
:1024880084A10008F0B585B005460F461446444BB4
:10249800029300200190009003460122414905F073
:1024A800E0FF414B9B6A13F4805F21D116263E4B17
:1024B8009B6A13F4006F27D13B4B9B6A13F4007F90
:1024C8002ED1394B9B6A13F4806F50D1364B9B6ADF
:1024D80013F4807F57D1344A936A43F47F4393625D
:1024E8000121284605F0BBFF2070304605B0F0BD3D
:1024F8002E4B0293002001900090034601222949A7
:1025080005F0AFFF1726D2E7294B02930020019070
:10251800009003460122234905F0A3FF1826CBE7C4
:10252800244B0293002001900090034601221D498C
:1025380005F097FF1C4B9A6B9B6A13F4004F01D16F
:102548001926BEE703921C4B0293002001900090CD
:1025580003460122134905F084FF37B1124A936AF2
:1025680023F4004393621926ABE71926A9E7134B16
:10257800029300200190009003460122094905F0CA
:1025880070FF1A26A2E70E4B0293002001900090DC
:1025980003460122034905F064FF1B269BE700BFA1
:1025A80054AF000884A1000800ED00E06CAF0008FB
:1025B80080AF000894AF0008B0AF0008C8AF0008AB
:1025C800E4AF000800B585B03D4B029300200190B0
:1025D8000090034601223B4905F043FF3A4B9B6AB2
:1025E80013F0007F23D11D20374B9B6A13F0807FA7
:1025F80029D1354B9B6A13F4002F30D1324B9B6A9B
:1026080013F4802F37D1304B9B6A13F4003F3ED12F
:102618002D4B9B6A13F4803F45D12B4A936A6FEA8E
:1026280003436FEA1343936205B05DF804FB274B3D
:10263800029300200190009003460122214905F0F1
:1026480010FF1E20D0E7224B02930020019000903B
:10265800034601221B4905F004FF1F20C9E71D4B53
:10266800029300200190009003460122154905F0CD
:10267800F8FE2120C2E7184B029300200190009039
:10268800034601220F4905F0ECFE2220BBE7134B5D
:10269800029300200190009003460122094905F0A9
:1026A800E0FE2320B4E70E4B029300200190009037
:1026B80003460122034905F0D4FE2420ADE700BFFC
:1026C800FCAF000884A1000800ED00E014B0000889
:1026D80028B0000844B0000864B000088CB00008B6
:1026E800A8B0000800B585B000200870054B02931B
:1026F8000190009003460122034905F0B2FE05B09F
:102708005DF804FBD4B0000884A1000800B587B0C8
:102718000F2910DC094B103904910393084B0293DD
:1027280000200190009003460122064905F099FE19
:1027380007B05DF804FB044BEDE700BFF8B00008F4
:102748002CB1000884A1000810B100082DE9F0415F
:1027580084B004460E461546554B0293002001905E
:10276800009003460122534905F07BFE524B9B6AB9
:1027780013F0100F2ED110274F4B9B6A13F0080F40
:1027880034D14D4B9B6A13F0020F3BD16FF0150803
:10279800494B9B6A13F0010F5FD1474B9B6A13F0BB
:1027A800100F04D1444B9B6A13F0020F04D0424B24
:1027B8005B6813F4006F5CD13F4A936A43F0FF03F0
:1027C80093620121204605F04AFE2870384604B07D
:1027D800BDE8F081394B0293002001900090034638
:1027E8000122344905F03DFE1127C5E7344B029319
:1027F800002001900090034601222E4905F031FE89
:102808001227BEE72F4B0293002001900090034649
:102818000122284905F025FE274BD3F834809B6A0E
:1028280013F0800F03D16FF015081327B0E7CDF828
:102838000C80254B02930020019000900346012252
:102848001C4905F00EFE36B11B4A936A23F080033B
:10285800936213279CE713279AE71C4B02930020E7
:102868000190009003460122124905F0FAFD142751
:1028780093E72146404600F03DFAA0B90E4B9B6A0B
:1028880013F0100F98D0124C40F22713224611492A
:10289800114805F074FC114805F071FC40F227114D
:1028A800204605F063FC80F30988022784E700BF0F
:1028B80040B1000884A1000800ED00E058B100080C
:1028C80080AF00088CB10008A4B10008BCB10008B2
:1028D800DCB1000810B20008C4A700085CB2000808
:1028E80070B584B006460D46484B02930024019407
:1028F8000094234601224649204605F0B2FD2C707B
:10290800444BDC6A14F002042AD1424BDB6A002BE8
:1029180034DB404BDB6A13F0804F66D03E4B0293AA
:1029280000200190009003460122394905F099FDE5
:102938003046FFF75FFD60BB364B9B6A13F0FF0F15
:1029480035D1344B9B6A13F47F4F37D1314B9B6A97
:10295800B3F5803F39D33046FFF734FE04460AE02A
:102968002E4B029300240194009423460122284907
:10297800204605F076FD204604B070BD284B029332
:1029880000200190009003460122214905F069FDCD
:10299800F1E733680393234B0293002001900090E2
:1029A800034601221A4905F05CFD3468E3E72A462C
:1029B80001213046FFF7CAFE0446DCE72A4601211A
:1029C8003046FFF75FFD0446D5E7174C40F2ED238C
:1029D80022461649164805F0D2FB164805F0CFFBEB
:1029E80040F2ED21204605F0C1FB0F4C4FF43C733B
:1029F80022460E490E4805F0C2FB0F4805F0BFFB02
:102A08004FF43C71204605F0B1FB00BF80B20008CE
:102A180084A1000800ED00E0CCB2000898B20008DC
:102A2800BCB20008ECB20008DCB1000890AC0008A9
:102A3800C4A7000808B300082CB3000830B58BB051
:102A4800274B5D68C5F30805002383F31188BFF39E
:102A58006F8F0DF12603FFF7EBFC58B104460DF11B
:102A68002702294605F00CFD05469DF827308BB155
:102A78000BB030BD1B4C40F2144322461A491B4888
:102A880005F07DFB1A4805F07AFB40F21441204618
:102A980005F06CFB0DF1040C20686168A268E3681E
:102AA800ACE80F0020696169A269E369ACE80F002E
:102AB8009DF826304BB1089BC3F308025AB96FEA58
:102AC80053236FEA4323089305E0089B23F4FF731D
:102AD80023F00103089301A92846FFF72DFCC7E757
:102AE80000ED00E0DCB100085CB30008C4A70008F2
:102AF80070B30008044B5A6942F010025A615A69CF
:102B080022F008025A61704700ED00E0EFF30880F8
:102B1800EFF3098101B57246FFF790FF01BD00BFD1
:102B28000A4880F30888102080F3118808484FF479
:102B38000461401880F30988EFF3148002210843E8
:102B480080F31488BFF36F8F05F0CAFC00120020D1
:102B58008004002008B50A4B9B68834202D003F02A
:102B680077FB08BDEFF30583002BF8D0054B5A68B7
:102B780042F080525A605A6A22F400425A62EEE7E2
:102B88003804002000ED00E014498A684FF0300056
:102B98001044EFF3098C80E8F01F102080F31288AE
:102BA800BFF36F8F0E4F4FF000664A698A603E6030
:102BB800106F0C4C2060506F0023536780F311880E
:102BC80004B5104600F012F9BDE8044002F13000E7
:102BD80090E8F01F8CF30988704700003804002043
:102BE80004ED00E0940200201EF0040F0CBFEFF388
:102BF8000880EFF30980816911F8021C0229FFD0CF
:102C080001B5724605F01FFC01BD00BF002807DBB7
:102C180000F01F02400901239340024A42F8203085
:102C2800704700BF00E100E0002808DB0901C9B2D5
:102C380000F1604000F5614080F80013704700F033
:102C48000F000901C9B2014B1954704714ED00E097
:102C580070B505460C4601310F2903D840B2FFF77D
:102C6800E3FF70BD084E6B2332460849084805F05B
:102C780086FA0F232A462146064805F080FA6B217A
:102C8800304605F073FA00BFB0B30008E8B3000897
:102C9800C4A7000804B40008044B23F07F03044AC7
:102CA8009360BFF34F8FBFF36F8F7047000000082A
:102CB80000ED00E010B4A2F120040D4942F8081C10
:102CC80021F0010142F8081C42F8203C019B42F81F
:102CD8001C3C029B42F8183C039B42F8143C4FF002
:102CE800807342F8043C04650023436710BC7047B6
:102CF800A51500080E4B9B68A3B110F1160F0AD05A
:102D08001A6EA2F1400C84450ED882420ED98A422E
:102D180006D8002070471A6E8A4201D800207047F2
:102D2800186E7047002070470020704700207047D9
:102D38003804002008B50E4615460B4A9060026F0D
:102D48000A4B1A6000F052F82C4686F309880020D6
:102D5800034B98472046002100220023014C2047BE
:102D680005850008A51500083804002094020020F5
:102D7800014B10221A61704700ED00E0002206E0C6
:102D880003F00F030949194410230B7601323D2A39
:102D98000ADC53B2002BF3DB03F1604303F5614314
:102DA800102183F80013F1E7704700BFFCEC00E046
:102DB80008B5EFF30583103B044A02EBC3014968E9
:102DC80052F833008847FFF705FB08BDC89E000886
:102DD80008B5034B034A0121034800F0BFF908BDB9
:102DE800000001200000002044B4000808B5036E6C
:102DF800403B0548036040234360044B8360012146
:102E080000F0CEF908BD00BF9802002000000B15A5
:102E1800084AC2F898000B6823F01F03034343F0E5
:102E28001003C2F89C308B6843F00103C2F8A0304D
:102E3800704700BF00ED00E010B584B004460D4BAC
:102E4800D3F89030C3F30723013B984204D8FFF727
:102E5800DFFF204604B010BD0390074B029300200B
:102E68000190009003460122044905F06CFB6FF0C5
:102E78001500EFE700ED00E054B400087CA100085D
:102E88002DE9F04385B080460F4699461646002541
:102E980009E02146F0B205F065FB064610F1160F71
:102EA8001ED001360135BD421ADA05EB450408EBA0
:102EB80084046268002AF5D0B9F1000FE9D02046F1
:102EC80005F030FB0028E4D10395074B02930190ED
:102ED800009003460122054905F035FB6FF0150601
:102EE800304605B0BDE8F0837CB400087CA100083A
:102EF80010B5034C01232278FFF7C2FF207010BDE4
:102F08007604002008B500230B4A1278FFF7B8FFB3
:102F180010F1160F0FD0024606E0084BC3F89820B0
:102F28000021C3F8A0100132044BD3F89030C3F34A
:102F380007239342F1DC08BD7604002000ED00E091
:102F4800F0B585B0054603A8FFF780F906460024CA
:102F580025E0B3F5801F21D1506851F80C10936813
:102F6800202B67D9B3F1004F66D8013BB3FA83F33E
:102F7800C3F11F035B0003F03E0343F0885343F49F
:102F8800302300900191029369462878FFF754FF97
:102F98000028C0F2BE802B7801332B700134B44274
:102FA80080F0BA804FEA041C039901EB0412D06840
:102FB800030D1B05B3F5000F71D01ED8B3F5001F24
:102FC8003CD0B3F5800FC4D1506851F80C10936809
:102FD800202B60D9B3F1004F5FD8013BB3FA83F3DC
:102FE800C3F11F035B0003F03E0343F0C06343F4E7
:102FF8000033009001910293C6E7B3F1807F69D056
:10300800B3F1007FCAD1506851F80C109368202B97
:103018007BD9B3F1004F7AD8013BB3FA83F3C3F1FC
:103028001F035B0003F03E0343F4802300900191EB
:103038000293A9E70823A0E73E239EE7576851F8C3
:103048000C109368202B22D9B3F1004F21D8013BF3
:10305800B3FA83F3C3F11F035B0003F03E0343F0AD
:10306800885343F4002300970191029310F0010F55
:103078008AD02B4C832322462A492B4805F07FF817
:103088002A4805F07CF88321204605F06FF80823CC
:10309800E5E73E23E3E70823A7E73E23A5E75068D3
:1030A80051F80C109368202B10D9B3F1004F0FD8AA
:1030B800013BB3FA83F3C3F11F035B0003F03E0344
:1030C80043F082730090019102935DE70823F7E7CC
:1030D8003E23F5E7506851F80C109368202B10D95F
:1030E800B3F1004F0FD8013BB3FA83F3C3F11F03C9
:1030F8005B0003F03E0343F0887300900191029354
:1031080042E70823F7E73E23F5E708238CE73E2349
:103118008AE76FF0150000E0002005B0F0BD00BFA1
:10312800A0B40008D0B40008C4A70008F8B4000888
:10313800044B0522C3F89420BFF34F8FBFF36F8F62
:10314800704700BF00ED00E0BFF35F8F024B002225
:10315800C3F89420704700BF00ED00E038B50C4676
:10316800FFF7C6FE10F1160F00D038BD084D40F22B
:1031780083132A460749084805F001F821460748FD
:1031880004F0FDFF40F28311284604F0EFFF00BF72
:10319800A0B4000890AC0008C4A7000828B500082F
:1031A80038B50C46FFF7AEFE10F1160F00D038BD4B
:1031B800084D4FF4D1732A460749084804F0DFFF49
:1031C8002146074804F0DBFF4FF4D171284604F08C
:1031D800CDFF00BFA0B4000890AC0008C4A7000849
:1031E80054B5000838B5394B1D68394BD3F89030C1
:1031F800C3F307239D4203D8FFF7A6FF00241FE06F
:10320800344C4FF4FE7322463349344804F0B7FF78
:103218002F4BD3F89020C2F307222946304804F0F8
:10322800AEFF4FF4FE71204604F0A0FF274B5B6809
:1032380004EB440103EB81012046FFF7E9FD01346B
:10324800A542F3D827480570FFF77AFE10F1160F4C
:1032580002D0244B1A7816E01E4C40F22623224650
:103268001D491E4804F08BFF1F4804F088FF40F2F8
:103278002621204604F07AFF154BC3F89820002138
:10328800C3F8A0100132124BD3F89030C3F30723D0
:103298009A42F1DBFFF74CFF0D4BD3F89030C3F3A4
:1032A8000723082B01D1002038BD0A4C40F26E23B9
:1032B80022460E49094804F062FF0D4804F05FFFFA
:1032C80040F26E21204604F051FF00BF58B60008B6
:1032D80000ED00E0A0B4000890AC0008C4A7000806
:1032E80084B5000876040020B8B50008E4B50008E5
:1032F80034B6000830B587B00D4611460024009456
:103308000194029403940494059402228DF80220F7
:10331800044A0192049005951A46684603F0A8FDF0
:1033280007B030BDAB85000808B5024B1B6898474D
:10333800002008BDA4020020034B1860034A9378BC
:1033480043F0020393707047A4020020100000208D
:1033580008B5064921F00701C1F1005202F5803293
:103368000348FDF7D7FD002008BD00BF4712002025
:10337800A8020020002399420ADD10B400EB030CD8
:10338800044C04F80C2001339942F7DC10BC704758
:10339800704700BF20000020F8B50746002401E070
:1033A8000134E4B27B78A34217D93D7866193046D8
:1033B80000F024F90028F3D0304600F04FF9074B0D
:1033C80053F83620002AEBD006F01F0503EBC6039E
:1033D80059680120A8409047E2E7F8BDB4020020F0
:1033E80001F0030C0CF102020B4B53F822200B0CDA
:1033F80022EA114193FAA3F35BB1B3FA83F303F022
:103408000F03984001430CF1020C034A42F82C10B8
:1034180070472023F3E700BF0000014000F00303DA
:103428000233074A52F82320030C02EA104093FAA9
:10343800A3F31BB1B3FA83F3D84070472023FBE70B
:103448000000014010B590B10246B0FA80F3C3F114
:103458001F03DBB20F2B0AD80A49C8560A4BD3F808
:1034680080100A43C3F8802005F02FF810BD074CE0
:10347800BD2322460649074804F081FEBD212046A7
:1034880004F074FE200000200008005888B60008E8
:10349800CCB60008C4A70008034AD2F8803023EA53
:1034A8000003C2F88030704700080058032927D865
:1034B800DFE801F0020C151E174B1A6822EA000219
:1034C8001A605A6822EA00025A607047124B1A685A
:1034D80002431A605A6822EA00025A6070470E4B8B
:1034E8005A6802435A601A6822EA00021A60704752
:1034F800094B1A6802431A605A68104358607047AB
:1035080010B5064CF82322460549064804F037FE54
:10351800F821204604F02AFE0008005888B6000862
:1035280090AC0008C4A7000810B498B1B0FA80F3B2
:10353800C3F11F03DBB29C460D4850F833008842A4
:103548000AD088B90A4B43F83C1003EBCC035A6005
:1035580010BC7047FF23EEE7054C04EBC3035B6820
:103568009342EED10020F3E76FF00F00F0E700BFC1
:10357800B402002060B1B0FA80F3C3F11F03DBB2DC
:10358800044A002142F8331002EBC302516070472D
:10359800FF23F5E7B402002000B587B0144806F011
:1035A800BEF8B0B1002304930593BDF8103054223F
:1035B80062F30B03ADF810304FF4807305930C4B96
:1035C8009B681B688BB104A90948984707B05DF848
:1035D80004FB084B02930190009003460122064920
:1035E80005F053F86FF01200F0E76FF05700EDE7C1
:1035F800889D000864B700083CA1000800F01F027D
:10360800012393403F2807D81F2818D8104AD268AA
:10361800934312D00020704710B584B003900D4B2F
:103628000293002401940094234601220A4920466B
:1036380005F02BF8204604B010BD01207047044A5D
:10364800D26A934301D0002070470120704700BF21
:103658000008005808B700083CA1000800F01F0245
:10366800012393403F2805D81F2815D80C4AD3605A
:103678000020704700B585B003900A4B02930020E4
:103688000190009003460122074904F0FEFF6FF005
:10369800150005B05DF804FB014AD36200207047AD
:1036A8000008005808B700083CA1000839B133B138
:1036B800B0FBF1F002FB00F0B0FBF3F0704710B57F
:1036C800054C612322460549054804F058FD61214F
:1036D800204604F04BFD00BFB0B70008F4B700085F
:1036E800C4A7000870B50C461546414B1E68012159
:1036F800304604F0DDFF2388C3F30B03013B632B43
:1037080070D8DFE803F0485C606467426B6D6F4A0D
:10371800536F6F6F6F6F6F6F6F6F6F6F6F6F6F6FCD
:103728006F6F6F6F6F6F6F6F6F6F6F6F6F6F6F6FA1
:103738006F6F6F6F6F6F6F6F6F6F6F6F6F6F6F6F91
:103748006F6F6F6F6F6F6F6F6F6F6F6F6F326F6FBE
:103758006F326F6F6F406F6F6F6F6F6F6F426F6F0A
:103768006F426F6F6F446F6F6F462E602368B3F5BB
:10377800805F3AD32A68C3F313330133B2FBF3F201
:103788002A60002030E02860F0E72860EEE7286033
:10379800ECE72860EAE72E60E8E700F087F8022304
:1037A80006220121FFF782FF2860DFE700F07EF89C
:1037B800022306220121FFF779FF2860D6E74FF49C
:1037C80000432B60D2E74FF4FA432B60CEE7094B56
:1037D8002B60CBE704F06FFF2860C7E72E60C5E7D2
:1037E8002E60C3E76FF0850070BD0020FCE700BFC6
:1037F800400000200024F40038B505F0A4F8284C57
:10380800204605F09DF801F049F84FF0B043D3F891
:10381800083103F00F03234A52F82350B0FBF5F5A3
:103828001368B4FBF3F4A54231D304F0A0FF04F00D
:10383800F5FF4FF0B0439A6822F0F0029A609A6858
:1038480042F003029A604FF0B0439B6803F00C0308
:103858000C2BF8D1A5421ED2134B114A1A604FF017
:10386800B0439A6822F4E0629A609A6822F460523F
:103878009A60D3F8082122F0F002C3F80821D3F89F
:10388800082122F00F02C3F80821002038BD204685
:1038980001F08EF8C9E7204601F08AF8DCE700BF9E
:1038A800006CDC0290BE0008400000200048704711
:1038B8000024F40008B505F044F84FF0B042D16890
:1038C800064B0B4040F0005040F4C0600343D36007
:1038D800D36843F08053D36008BD00BF8C80FF1FBE
:1038E80010B504460A2806D0E1B2064883685B682A
:1038F8009847204610BD034883685B680D219847A8
:10390800F2E700BF689E000810B5044C2046FFF798
:1039180013FD2046FDF73CFE10BD00BFE938000846
:1039280008B5054805F0FBFE18B1FFF7EDFF0020CC
:1039380008BD6FF01200FBE7689E000808B54368F1
:1039480041B103F10C010B4B9B681B685BB1094843
:10395800984708BD03F10C01064B9B685B682BB1C7
:1039680004489847F5E76FF05700F2E76FF0570003
:10397800EFE700BF889D000870B569B10446164698
:103988000D464B68B3B1036813B304F0F0FF50BBA6
:10399800FEB96FF0150022E0164C4F232246164957
:1039A800164804F0ECFB164804F0E9FB4F212046CA
:1039B80004F0DCFB0F4C5023224612490F4804F058
:1039C800DEFB114804F0DBFB5021204604F0CEFB5F
:1039D80032B123682B602560636843B1002070BD55
:1039E8006FF01500FBE7002EF3D10020F7E76560C4
:1039F8000020F4E71CB8000858B80008C4A700085D
:103A080064B8000874B8000888B8000870B50E4695
:103A18001546016821B10C68ACB1A1B90C4612E099
:103A28000C4610E0114C742322461149114804F049
:103A3800A6FB114804F0A3FB7421204604F096FB72
:103A4800234621461C4681B18A682A4004D04B6827
:103A5800002BE7D030469847002CF1D02368002B84
:103A6800EFD0002CEDD12346EBE770BD1CB8000861
:103A7800A0B80008C4A7000888B800082DE9F843D2
:103A88000F4616461C46D0F80480D0F81090D8F897
:103A9800080004F0DAFDB6F5001F0FD00546B6F5AC
:103AA800800F2DD0B4F1806F26D0B4F1C06F25D02F
:103AB800B4F1007F09D06FF015041AE03946D8F840
:103AC800080005F027F9002413E002264A460F49AA
:103AD8002846FFF729FD0446A8B9D8F80810384643
:103AE80004F0B8FD31462846FFF7E0FC2846FFF70A
:103AF800A9FC2046BDE8F8830126E7E70326E5E7A9
:103B08006FF08504F5E76FF00F04F2E70D8D0008FC
:103B180010B5044603695860054805F000FE20B159
:103B28000449204604F033FF10BD6FF01200FBE794
:103B3800889D0008A38A0008036993F84C201AB1ED
:103B48001B6A0B600020704700B585B0074B0293D5
:103B580000200190009003460122054905F00CF968
:103B68006FF0040005B05DF804FB00BF48B9000819
:103B78004CA10008164B984223D00AD9154B9842FD
:103B880023D003F5C31303F52063984209D10A2013
:103B98007047114B984216D0104B984201D104201F
:103BA800704710B584B00E4B029300240194009422
:103BB800234601220B49204605F0DEF8204604B0D2
:103BC80010BD06207047022070470820704700BFCC
:103BD80040420F0040E13300A0860100801A060031
:103BE80068B900084CA1000842680369D26883F8E4
:103BF8004E1021B9136823F440131360704700B5C1
:103C080087B0036804910393064B02930020019048
:103C1800009003460122044905F0AEF807B05DF8AC
:103C280004FB00BF84B900084CA10008F0B587B0B8
:103C38000E4643680569DF680022059259681E4BE5
:103C48009B68DB6853B3044605AA1B4898470028BD
:103C580024DB2E6205F110064FF0FF324FF0FF33E0
:103C6800304601F09BFA3B6823F001033B6095F86E
:103C78004E102046FFF7B8FF0599204600F0E2F8FD
:103C8800044695F84D301BB13B6843F001033B6097
:103C9800304601F0E7F9204607B0F0BD074B029324
:103CA80000200190009003460122054905F064F8C0
:103CB8006FF00404EFE700BF889D000898B900087A
:103CC8004CA1000870B584B00446466805694FF0F9
:103CD800FF320021284605F049FD33682046984701
:103CE800002385F84C3085F84E3005F1100001228C
:103CF800114605F03BFD174805F011FD98B1204627
:103D080000F030F83069FFF735FF40F01001204629
:103D1800FFF78CFF041E12DB012385F84C300024CA
:103D2800204604B070BD0C4B0293019000900346EE
:103D380001220A4905F020F86FF01204F0E7084B59
:103D4800029300200190009003460122034905F0E8
:103D580013F8E5E7889D0008C8B900084CA10008D9
:103D6800E8B9000830B585B045680021686905F0F4
:103D78008DF8041E0BDB6968114B9B681B6893B1B7
:103D88000F489847044670B9204605B030BD0394E3
:103D98000C4B0293002001900090034601220A492F
:103DA80005F084F8F0E7094B029300200190009099
:103DB80003460122044905F079F86FF00404E3E7AB
:103DC800889D0008C4BA000854A10008E4BA000895
:103DD800164B984223D00AD9154B984223D003F5A5
:103DE800C31303F52063984209D10A207047114B89
:103DF800984216D0104B984201D10420704710B554
:103E080084B00E4B029300240194009423460122AF
:103E18000B49204605F005F9204604B010BD0620E0
:103E28007047022070470820704700BF40420F00CB
:103E380040E13300A0860100801A060068B9000836
:103E48005CA100082DE9F04F85B08A464768D0F894
:103E58001090D7F80CB0002400E00134FB69A342AD
:103E68001AD9BE6904EB44054FEA850806EB8505B7
:103E78006868FFF7ADFFD9F820305B0883EA500384
:103E880013F0070FE9D156F808305345E5D1AB6870
:103E9800CBF81030002056E0D9F82030C3F34203A5
:103EA800012B0ED0022B15D0314B0293002001902C
:103EB8000090034601222F4905F0B3F86FF0150072
:103EC80041E041F25C2C4FF47A6740F2E2464FF44D
:103ED800FA7507E040F2145C4FF416774FF4FA765F
:103EE80040F27715012102E001310F2930D8BAFBE1
:103EF800F1F2214BB3FBF2F3B7FBF3F2BCFBF3F0A7
:103F0800B5FBF3F4B6FBF3F3013AFF2AECD801381A
:103F1800FF28E9D80F2C19D8013B0F2B16D84D1EB6
:103F28001B0503F4700343EA0573240404F47024A6
:103F38002343120292B21343C0B203430F2909D894
:103F4800CBF81030002005B0BDE8F08F0131CCE788
:103F58000023F3E7094B02930020019000900346E9
:103F68000122044905F05DF86FF01500EBE700BF8A
:103F780014BB00085CA1000800CA9A3B90BB00086B
:103F8800B0F5D07F17D2F8B504460D46164603099A
:103F98000A4A52F823705FB1384605F0C0FB38B1C1
:103FA80033462A4604F00F01384604F0CBFEF8BD2C
:103FB8006FF01200FBE76FF01500704710BC0008A7
:103FC800F8B506460F460024254616E002F01F0104
:103FD80010292ED011291DD0F1B1530A1B0103F469
:103FE800F873C2F3431002F01F0229461843FFF783
:103FF800C7FF002820DB0134E4B2BC421BD206EB29
:10400800C40356F8342012F0100FDFD15D6845F074
:104018002005E2E75D68E0E7084C40F257132246C6
:104028000749084804F0ABF840F25711204604F05D
:104038009DF83025D1E70020F8BD00BFC4BB0008BB
:10404800F8BB0008C4A70008EBB170B504461E46CB
:10405800002592B20C4B33F812202B46084629460D
:10406800FCF780FC0346090241EA13611B0272084F
:10407800981832462B4641F10001FCF773FCC0F357
:104088001300E06070BD704738BE0008012913D0E6
:1040980002290AD011B14FF40050704702680A4B48
:1040A8009A420BD04FF4805070470268064B9A42F0
:1040B80006D04FF4405070470020704700207047EA
:1040C8004FF40050704700BF0080004008B5024A16
:1040D80005F0D1F908BD00BFDF94000808B5024A11
:1040E80005F0DCF908BD00BFE594000830B585B0DF
:1040F800456804691448206005F011FB50B1206838
:10410800E96883681B688BB19847044680B92046E4
:1041180005B030BD0D4B029301900090034601227B
:104128000B4905F018FA6FF01204F0E76FF0570426
:10413800084B029300200190009003460122044995
:1041480005F009FAE3E700BF889D0008C8B9000830
:10415800A4A1000890BC000838B51C460025094BEE
:1041680033F812202B46FCF7FDFB090241EA1061E7
:1041780000026308181822462B4641F10001FCF79B
:10418800F1FB38BD38BE0008F0B589B043681E6839
:104198000269002900F0A18005460F461068D96819
:1041A8008368DB68D3B107AA9847041E18DB4C4B19
:1041B8009E4220D0336823F400433360079B03EB0F
:1041C8005703B3FBF7F30F2B69D99BB2F360F3687E
:1041D8000F2B74D90024204609B0F0BD6FF05704A6
:1041E800404B0293002001900090034601223E4973
:1041F80005F0B1F9EFE700240B2C0DD83B46224619
:1042080007980021FFF7A8FFA0F54073374A9342AB
:1042180002D90134E4B2EFE70C2C14D0F36A23F08E
:104228000F032343F3623B46224607993046FFF7C4
:104238000BFFF368B3F5407F15D3F2682C4B9A4215
:104248001FD80024C7E72B6804970393294B0293D0
:1042580000200190009003460122234905F07BF9D4
:104268006FF01504B7E7244CDC2322462349244881
:1042780003F085FF234803F082FFDC21204603F08A
:1042880075FF1D4CE02322461F491D4803F077FFA8
:104298001E4803F074FFE021204603F067FF2B68F7
:1042A80004970393134B0293002001900090034658
:1042B80001220D4905F04FF96FF015048BE70E4CFC
:1042C800FD23224612490E4803F059FF114803F016
:1042D80056FFFD21204603F049FF6FF015047AE7E9
:1042E8000080004098B90008A4A10008FFFC0F0056
:1042F800FEFF0F00B0BC0008C8BC0008F8BC0008EE
:10430800C4A7000814BD00082CBD00084CBD000857
:1043180064BD00087CBD00082DE9F84F06460C4630
:10432800406805683369D3F804A00F79012F15D0C8
:10433800022F16D14FF4806B94F805904946FFF789
:10434800A5FE034694F80680B8F1020F0CD0B8F128
:10435800040F0FD0002F4CD100200DE04FF4C06B9C
:10436800EAE74FF0000BE7E70FB1002004E04FF059
:10437800805001E04FF48050FA1ED2B2012A4DD984
:1043880017B1B8F1040F4CD0B3F5805F36D0B3F550
:10439800405F35D083B30323994545D1594605F08D
:1043A80008F8804543D1E37973B1012B2AD0032B58
:1043B80040D1254B9D4207D0A3F574439D4203D0BD
:1043C80003F570539D4238D12B6823F001032B600D
:1043D8002146304605F0DEF8002831DB2B6843F033
:1043E80001032B6094E803008AE803000020BDE87D
:1043F800F88F4FF48050BFE70123CDE70023CBE7C8
:104408000223C9E7104A9542DED0A2F574429542CC
:10441800DAD002F570529542C9D1D5E76FF0850020
:10442800E5E76FF08500E2E76FF08500DFE76FF002
:104438008500DCE76FF08500D9E76FF08500D6E7E7
:104448006FF08500D3E700BF00380140F0B585B0B4
:10445800064645682C6803695F68236823F00103F2
:104468002360686805F05BF900285BD0A968686874
:1044780004F088FF54E8003F43F00C0344E800329E
:10448800002AF7D13946304605F084F8002875DB54
:104498002B7D1BB1A36843F00803A3606B7D1BB1A0
:1044A800636843F400436360AB7D1BB1636843F406
:1044B80080336360EB7D1BB1636843F40033636052
:1044C8002B7E23B32F4B9C4207D0A3F574439C4209
:1044D80003D003F570539C4230D173681A6893680F
:1044E80043F4804393606A7E236823F0787343EA39
:1044F80042532360AA7E236823F4F81343EA024355
:104508002360EB7E1BB1A36843F40043A3602B7FB9
:104518001BB1236843F000532360236843F0010371
:1045280023601BE0184B0293019000900346012280
:10453800164905F010F86FF012001DE03368039378
:10454800134B0293002001900090034601220F496B
:1045580005F001F86FF015000EE033B9E36913F4C4
:104568000013FAD00123F8E72AB9E26912F48002AD
:10457800FAD01A46F8E7002005B0F0BD6FF0150034
:10458800FAE700BF0038014090BD0008A4A1000868
:10459800ACBD00084FF0E023996918699A6909B918
:1045A8000C4B19680AB90B4B1A6810F4803F01D1FB
:1045B800914208D208490B680648006803440B601A
:1045C8004FF0E0231B69034B1B689B1A024A1068D3
:1045D8001844704730040020240400200A4B10229D
:1045E80083F82320094B4FF496521A600020084B99
:1045F80018604FF0E02341F2BF225A6198611A69AE
:1046080042F007021A61704700ED00E03004002014
:1046180024040020684620F007018D4601B5FFF705
:10462800B9FF0E4B18680E4A116808441060002242
:104638001A600C4A1368C01A0B49A1FB0010400A03
:104648004FF4965101FB0033136002F04BFAFDF76B
:10465800C1FEBDE801408546704700BF2404002024
:104668002C04002028040020B5814E1B70B50029B9
:1046780051D0B0F1FF3F43D04E4B1D68012852DDA9
:1046880040F6A7539842A8BF1846441EEFF3118678
:10469800102383F31288BFF36F8F474802F06EF838
:1046A800002842D0444802F093F8FFF773FF4FF018
:1046B800E0239969414B1A6810441860404B002266
:1046C8001A60404B1A68831A3ED44FF4965C0CFB70
:1046D800043303F595531F333B4CA4FB03435B0A98
:1046E800121A0CFB03221446B2F5806F38BF4FF440
:1046F8008064364B9A4244D92E4B344A1A6027E0DC
:104708004FF0E022136923F001031361294B4FF0A6
:104718007F421A6034E0274B1D68B0F1FF3FADD1EE
:1047280040F6A650ACE70024B0E7294C882322467F
:104738002849294803F023FD1F49284803F01FFD95
:104748008821204603F012FD1A4B4FF480621A604C
:104758004FF0E0239C69174A1268013A5A61002217
:104768009A61A14210D22D1B0D440544134B1D60C4
:10477800114802F013F860B186F31188BFF36F8F08
:1047880070BD0C4B1C60E3E7091B08440B4B186019
:10479800EEE70F4C4FF49A73224611490E4803F086
:1047A800EEFC05490F4803F0EAFC4FF49A712046E5
:1047B80003F0DCFC30040020340400202C0400202A
:1047C8002404002028040020B5814E1B80E8FF0047
:1047D80014AA000844AA0008C4A700085CAA000894
:1047E80074AA00088CAA000870B5EFF3118610238C
:1047F80083F31288BFF36F8F1E4801F0BFFFC0B16B
:104808001C4D284601F0E4FF1B4B1C681B4B1B6822
:10481800E41AFFF7BFFE0444284601F0BFFFB8B111
:1048280086F31188BFF36F8F154BA3FB0430400A42
:1048380070BD144C882322461349144803F09FFC8A
:104848000C49134803F09BFC8821204603F08EFC9A
:104858000C4C4FF49A7322460E490C4803F08FFC17
:1048680029460D4803F08BFC4FF49A71204603F05B
:104878007DFC00BF340400202C0400202804002004
:10488800B5814E1B14AA000844AA0008C4A7000852
:104898005CAA000874AA00088CAA00084FF0B0436C
:1048A8009968DB6803F0030311F00C010AD00C29A6
:1048B80006D0042947D008293BD00022104626E01C
:1048C800012BF6D14FF0B0431B6813F008030DD04D
:1048D8004FF0B0431B6813F0080324D14FF0B042E7
:1048E800D2F894202E4A52F823200EE04FF0B0421E
:1048F800126812F0080F12D14FF0B043D3F8943079
:10490800C3F30323264A52F82320D1B100204FF0E5
:10491800B0439B6803F00C030C2B1AD070474FF080
:10492800B0421268EEE74FF0B0431B68C3F30313BD
:10493800D8E74FF0B0431A6812F4801206D119482C
:10494800E5E71046E3E700221748E0E700221748AA
:10495800DDE74FF0B043DB6803F00303022B09D017
:10496800032B08D14FF0B0431B6813F4801F15D1F7
:104978000C4A00E00C4A4FF0B041CB68C3F3062361
:1049880003FB02F2CB68C3F302130133B2FBF3F269
:10499800C868400F0130B2FBF0F0BFE7034AEAE70E
:1049A80050BE000800127A000024F40000093D00FF
:1049B80010B48BB00446364B93E807000DF1280C71
:1049C8000CE907000DF1100C03F10C0207CA8CE882
:1049D80007000DF1040C183393E807008CE8070072
:1049E800002C50D022462B4B1B6803F4C063B3F550
:1049F800007F04D0284B9C4234D9002044E0274B48
:104A08009C4207D900203FE00AAA02EB830353F82F
:104A1800241C13E00023022B09D80AA901EB830107
:104A280051F80C1C9142EFD20133DBB2F3E70020BE
:104A38002AE00AAA02EB830353F8241C184A1368D5
:104A480023F007030B4313600222154B1B6803F086
:104A58000703013A994201D0002AF6D1994210D0B1
:104A6800002011E00023022B09D80AA901EB8301D9
:104A780051F8181C9142DCD20133DBB2F3E7002075
:104A880002E0012000E000200BB010BC704700BF1E
:104A9800C0A10008000400580024F400006CDC02E7
:104AA8000040005870B5044643691BB39847054653
:104AB80048B100F1FF03FE2B0CD84542FF2D00DD65
:104AC800FF25E3681D70E268537843F001035370D3
:104AD800684270BD084E2E2332460849084803F044
:104AE8004EFB2A462168074803F049FB2E21304631
:104AF80003F03CFB0025E6E7D0BE00080CBF000829
:104B0800C4A7000824BF000804280CD8DFE800F078
:104B1800030D050709000648704706487047064810
:104B2800704706487047064870470648704700BFF8
:104B38004CBF000870BF000880BF00088CBF000889
:104B48009CBF00085CBF000830B108B504F040FE07
:104B580020B1037823B108BD024870470148FAE73D
:104B68000048F8E7ACBF000810B584B00446FDF76C
:104B780025F8064B0293002001900090034601227D
:104B8800034904F0DCFD204604F0E8FDB4BF00084A
:104B980084A100082DE9F04186B004460D46EFF3E4
:104BA8001188102383F31288BFF36F8F274FBE68D5
:104BB800FFF7AAFF3B7C059304900394244B0293D0
:104BC80000200190009003460122224904F0B7FD1D
:104BD8001DB1EB69C3F30803F3B93046FFF7B4FF1F
:104BE800049003961C4B029300200190009003460A
:104BF8000122184904F0A3FD29462046FFF7B4FF17
:104C0800042C14D088F31188BFF36F8F3046FDF75A
:104C1800A1FF06B0BDE8F081104B0293002001907F
:104C28000090034601220B4904F089FDD5E70C4C9E
:104C3800872322460B490C4803F0A1FA0B4803F0DE
:104C48009EFA8721204603F091FA00BF380400201D
:104C5800C4BF000884A1000810C00008ECBF000809
:104C680028C000084CC00008C4A700086CC0000891
:104C780010B586B00F4C04EBC01400EB800C0E4B43
:104C880003EB8C0300220592012104910F2103916B
:104C9800029201920093094B4FF48072084901EB8C
:104CA8008C11204600F00CFB637B23F00403637334
:104CB80006B010BDA8000020380400209D4F000851
:104CC800C00C00200C4B00E020330C4A934203D860
:104CD8000A4A9342F8D3704710B5094CCC232246B0
:104CE8000849094803F04BFA084803F048FACC2170
:104CF800204603F03BFA00BF889D0008C89E0008C4
:104D0800A4C00008F4BE0008C4A70008A0AB0008AF
:104D180038B505460B4B53F8204002E02368984706
:104D280008346B1C074A52F82330A34209D960683B
:104D38000028F3D0037F13F0010FF1D1FFF7B2FE83
:104D4800EEE738BD00C1000808B553EA020102D1F8
:104D580001F01CFA08BD0249183001F063FDF9E7BB
:104D6800B198000810B586B0294C14E0636A059321
:104D7800236A0493E3690393A36902936369019324
:104D880023690093E368A2686168206800F098FAD4
:104D980023685C6530341F4B9C4206D81D4B9C42EF
:104DA800E4D300F021FF1A4C0EE01B4C44232246AA
:104DB8001A491B4803F0E3F91A4803F0E0F94421C3
:104DC800204603F0D3F93034124B9C420ED8114BD5
:104DD8009C4219D2A26AE36AB3F1FF3F08BFB2F15D
:104DE800FF3FF0D02068FFF7AFFFECE70A4C6823DD
:104DF80022460A490A4803F0C2F90A4803F0BFF9F3
:104E08006821204603F0B2F900F06EFF06B010BD2D
:104E1800B8A00008B8A00008A4C00008C8C00008CE
:104E2800C4A70008A0AB000808B50A4B01221A70F5
:104E38000320FFF76DFF01F077FF0420FFF768FFFD
:104E4800FFF790FFFBF7ECFF034A137B23F0010306
:104E5800137308BD770400202801002008B5014617
:104E6800014A0248FDF766FF314E0008280100207C
:104E780010B50446FFF7FCFE0B4901EBC4110B4AC1
:104E880004EB840302EB8303D9601C7404EB441124
:104E9800074B03EB811303F5046304EB840402EB73
:104EA8008402536010BD00BFA80000203804002011
:104EB8008004002070B586B000F0CAFF104D114B79
:104EC8005D61114B0593012304930024039402941C
:104ED800019400940D4B4FF480620D49284600F070
:104EE800EFF906466B7B23F004036B73284600F04A
:104EF800EBFC2046FFF7BCFF304606B070BD00BF94
:104F08002801002038040020F8C00008314E0008AD
:104F1800000E002008B50020FFF7FAFE1A4B83F3B5
:104F280008881A4C636943F400736361F02384F8BA
:104F380022300023E37723766376A37684F8203043
:104F4800636A43F4E0236362FDF7D4FDFDF710FFC5
:104F58004FF0FF33A362E362FEF744F9FDF738FF31
:104F6800FCF7E8FD0A4800F007FAFFF7ABFEFCF78C
:104F780015FC0120FFF7CCFE0220FFF7C9FEFFF762
:104F880099FFFFF76BFF00BFC00C002000ED00E0A9
:104F9800A801002008B50D4B9B6893F90E30002B33
:104FA80009DBEFF31183102383F31288BFF36F8FAC
:104FB80003F0ABFAF5E7064C1C23224605490648E0
:104FC80003F0DDF81C21204603F0D0F83804002057
:104FD8001CC1000840C10008C4A70008EFF31183F2
:104FE800102282F31288BFF36F8F0BB100BF704796
:104FF80010B5074C632322460649074803F0BFF85B
:10500800064803F0BCF86321204603F0AFF800BF60
:105018001CC1000868C10008C4A700088CC10008AA
:10502800836863B14268036813605A6000230360B1
:105038004360427B22F0020242738360704710B5DE
:10504800054C912322460549054803F098F891211B
:10505800204603F08BF800BFBCC10008E8C1000877
:10506800C4A700082DE9F0410446EFF31186102388
:1050780083F31288BFF36F8F3E4801F07FFB00284F
:1050880032D007463B4801F0A3FBEFF3118310220F
:1050980082F31288BFF36F8F83F31188BFF36F8F8A
:1050A800002B30D02568AC423BD0B5F1000818BFC2
:1050B8004FF00108002D36D1B8F1000F3BD1A3689D
:1050C800E26893423DD001221344A3600027002FD9
:1050D80039D1284801F062FB002839D086F31188BD
:1050E800BFF36F8FBDE8F081234C88232246234904
:1050F800234803F044F81F49224803F040F8882168
:10510800204603F033F8204CA82322461F491C48A8
:1051180003F035F81E4803F032F8A821204603F0C2
:1051280025F80025C1E72846FFF77AFF05F11800A2
:1051380001F06CFCC0E70023AB67284600F0C4FB15
:10514800C5E70022C0E731460A4800F0EFFCC9E78E
:10515800094C4FF49A7322460E49094803F00FF898
:1051680004490D4803F00BF84FF49A71204602F0F9
:10517800FDFF00BF5804002014AA000844AA000834
:10518800C4A700085CAA0008BCC1000800C2000847
:1051980018C2000874AA00088CAA0008F0B583B0E9
:1051A800044616461D46EFF3058111B155EA020380
:1051B8001DD1EFF31187102383F31288BFF36F8F8C
:1051C800354801F0DBFA00B3334801F001FBA16870
:1051D80000293AD00139A1602F4801F0DFFA18B34D
:1051E80087F31188BFF36F8F002003B0F0BD2B4CFD
:1051F800882322462A492B4802F0C1FF2A4802F098
:10520800BEFF8821204602F0B1FF284C88232246A1
:105218002749244802F0B3FF1F49264802F0AFFF90
:105228008821204602F0A2FF204C4FF49A732246B0
:1052380021491C4802F0A3FF1749204802F09FFFAC
:105248004FF49A71204602F091FF55EA06031BD1EC
:10525800114801F0A3FA30B187F31188BFF36F8FBB
:105268006FF00F00C1E7114C4FF49A7322461249B0
:105278000C4802F084FF0849104802F080FF4FF400
:105288009A71204602F072FF00960195224639462F
:10529800014800F0CBFBA8E7580400201CC2000816
:1052A8003CC20008C4A7000818C2000814AA0008D5
:1052B80044AA00085CAA000874AA00088CAA00087E
:1052C8002DE9F04184B004460D4690461F460D9ED8
:1052D8000F2E2AD006F110031E2B2AD804F15803EA
:1052E800A365E3650E9B04223146204604F072FA5A
:1052F80042462946204604F048FA06460C9B02938B
:105308000B9B01930A9B00933B4602462946204685
:10531800FDF7D0FC00236365114B9B68EBB1DB6E96
:10532800E366304604B0BDE8F0810E4B9F42D1D110
:10533800D4E70D4C40F2452322460C490C4802F0B4
:105348001EFF6FF00F030E2231460A4802F017FFC6
:1053580040F24521204602F009FFE366E1E700BF7D
:10536800380400209D4F00088CC20008B0C2000815
:10537800C4A7000830C30008012343730373002344
:1053880003664366C366014B986070473804002083
:10539800836863B14268036813605A60002303603E
:1053A8004360427B22F0020242738360704710B56B
:1053B800054C912322460549054802F0E0FE91215B
:1053C800204602F0D3FE00BFBCC10008E8C10008B7
:1053D800C4A70008014628B1134B9B685B7B13F0F8
:1053E800090F12D0104A936859676FF00A0199673C
:1053F8000E494B6843F080534B60002383F31188B8
:10540800BFF36F8F9368986F704710B5084CD2231D
:1054180022460849084802F0B2FE084802F0AFFEEA
:10542800D221204602F0A2FE3804002000ED00E060
:1054380064C3000890C30008C4A70008FCC30008A0
:10544800437B90F90D20002A6EDB13F01F0F6BD100
:1054580010B563F07F034373344B984206D0344A47
:1054680052F8183F934219D1002317E0314C4F23CB
:1054780022463149314802F082FE4F21204602F08F
:1054880075FE5A6842600360106058601EE01A4654
:105498002749C9698A420FD01B687BB173B190F95B
:1054A8000E1093F90E209142F1D0521A002AE8DC2E
:1054B8001A46002BECD1F0E70023EEE71C4BDA6923
:1054C80003F11801016042601060D861184B53F86D
:1054D800184F9C420FD074B1154B9B6873B15A7B1F
:1054E80012F01F0F18D1DA897F2A15D9A2699AB943
:1054F8000F4A536117E00E4BDC68EDE7104CED23C3
:10550800224610490D4802F03AFE0F4802F037FED5
:10551800ED21204602F02AFEA34202D0204601F0E7
:105528007FF8034B5C6110BD704700BFA8000020E6
:105538003804002024C4000848C40008C4A7000890
:105548006CC4000898C4000818C2000810B5437B52
:1055580090F90D20002A15DB234B9A6853F8184F51
:105568009C4228D03CB3824236D03AB3537B13F0E6
:105578001F0F31D1D3897F2B2ED9A36963BB1A4B57
:105588005A6130E003F07F034373184B984207D009
:105598004268036813605A60002303604360DBE7D6
:1055A800134C562322461349134802F0E8FD5621AE
:1055B800204602F0DBFD0C4BDC68D4E70F4CED23F2
:1055C80022460F490C4802F0DAFD0E4802F0D7FDDA
:1055D800ED21204602F0CAFDA24202D0204601F089
:1055E8001FF8014B5C6110BD38040020A8000020A2
:1055F80024C4000848C40008C4A700086CC40008F4
:1056080098C4000818C200082DE9F84305460C465E
:105618004D4B9E68737B13F0600F28D013F0200F5A
:105628002FD008271F4222D13B43737313F0800FFA
:1056380029D1082F40D04FF00009434B53F8188F59
:10564800984555D0B8F1000F52D03F4B9B68434561
:1056580002D0404600F0E4FF3B4BC3F81480102F03
:1056680005D0304602F047FFB9F1000F44D1374862
:1056780001F094F8002843D084F31188BFF36F8FAA
:105688005CE01027CEE703F07F037373304B9E4234
:1056980007D07268336813605A6000233360736000
:1056A800C7E72C4C562322462B492C4802F067FDAD
:1056B8005621204602F05AFDB36813B13046FFF771
:1056C80067FE304604F0C5F806F1580004F0C6F845
:1056D8001D4B9B689E4202D04FF00009ADE7EFF3E7
:1056E800058313B94FF00009A7E74FF00109A4E7B4
:1056F800154BD3F80C80A8E71948FFF73DFEB6E72D
:10570800184C4FF49A7322461749144802F037FD93
:105718000E49164802F033FD4FF49A71204602F004
:1057280025FDEFF31184102383F31288BFF36F8FE5
:10573800FFF754FC84F31188BFF36F8F6B7B13F072
:10574800600FEED1BDE8F883380400205C04002027
:10575800A800002024C4000848C40008C4A7000802
:10576800A801002014AA000874AA00088CAA00083E
:10577800B3F1FF3F08BFB2F1FF3F00D1704708B552
:105788000249183001F04EF808BD00BFB198000872
:1057980010B5437B90F90D20002A0DDB437B63F0A5
:1057A8007F034373404B98421FD0404A52F8183F3A
:1057B800934232D1002330E003F07F0343733A4B26
:1057C800984207D04268036813605A600023036058
:1057D8004360E3E7364C562322463649364802F002
:1057E800CEFC5621204602F0C1FC314C4F23224604
:1057F8003049314802F0C3FC4F21204602F0B6FC84
:105808005A6842600360106058601EE01A462749D3
:10581800C9698A420FD01B687BB173B190F90E1029
:1058280093F90E209142F1D0521A002AE8DC1A4668
:10583800002BECD1F0E70023EEE71C4BDA6903F10B
:105848001801016042601060D861184B9A6853F8DB
:10585800184F9C420FD074B182421DD072B1537B55
:1058680013F01F0F18D1D3897F2B15D9A3699BB9C2
:105878000E4B5A6117E00D4BDC68EDE70F4CED233A
:1058880022460F490C4802F07AFC0E4802F077FCD9
:10589800ED21204602F06AFCA24202D0204600F028
:1058A800BFFE024B5C6110BDA80000203804002038
:1058B80024C4000848C40008C4A700086CC4000831
:1058C80098C4000818C2000870B50546EFF31186A1
:1058D800102383F31288BFF36F8F1E4800F04EFF2A
:1058E80020B100241B4800F073FF17E01A4C8823EE
:1058F80022461A491A4802F042FC1649194802F091
:105908003EFC8821204602F031FC124800F046FF98
:1059180070B186F31188BFF36F8F0124CCB9284684
:1059280003F063FF0028F0D12846FFF789FDECE774
:10593800094C4FF49A7322460B49094802F01FFCA0
:1059480004490A4802F01BFC4FF49A71204602F001
:105958000DFC70BD5C04002014AA000844AA0008CD
:10596800C4A700085CAA000874AA00088CAA00084A
:1059780070B50446EFF31186102383F31288BFF342
:105988006F8F234800F0FAFE20B10025204800F070
:105998001FFF1EE01F4C882322461F491F4802F0A4
:1059A800EEFB1B491E4802F0EAFB8821204602F064
:1059B800DDFB637B23F0040363732046FFF740FDA0
:1059C800134800F0EBFE80B186F31188BFF36F8FA8
:1059D8000125DDB9637B13F0280FF1D1A368002BF3
:1059E800E7D02046FFF7D4FCE3E70A4C4FF49A735C
:1059F80022460C49094802F0C2FB05490A4802F050
:105A0800BEFB4FF49A71204602F0B0FB70BD00BF98
:105A18005C04002014AA000844AA0008C4A70008CF
:105A28005CAA000874AA00088CAA0008F8B5344BD0
:105A38009D68344B1D60344B984223D004460F4672
:105A48001646EFF31183102383F31288BFF36F8F89
:105A58002D4800F093FE10B32B4800F0B9FEDDE9A5
:105A6800062331462648806803F012FF204600F0DE
:105A780095FE18B3244800F091FE80B33846FFF72E
:105A8800A9FCF8BD214C40F2652322462049214853
:105A980002F075FB40F26521204602F067FB1E4CC0
:105AA800882322461D491B4802F069FB16491C48F9
:105AB80002F065FB8821204602F058FB164D4FF492
:105AC800B7732A461749134802F059FB214616486E
