:020000040800F2
:10000000001200200D220008B57A0008F92100082E
:10001000F9210008F9210008F9210008000000007A
:10002000000000000000000000000000D5220008D1
:10003000F92100080000000075220008013D0008B9
:100040009D2400089D2400089D2400089D2400088C
:100050009D2400089D2400089D2400089D2400087C
:100060009D2400089D2400089D2400089D2400086C
:100070009D2400089D2400089D2400089D2400085C
:100080009D2400089D2400089D2400089D2400084C
:100090009D2400089D2400089D2400089D2400083C
:1000A0009D2400089D2400089D2400089D2400082C
:1000B0009D2400089D2400089D2400089D2400081C
:1000C0009D2400089D2400089D2400089D2400080C
:1000D0009D2400089D2400089D2400089D240008FC
:1000E0009D2400089D2400089D2400089D240008EC
:1000F0009D2400089D2400089D2400089D240008DC
:100100009D2400089D2400089D2400089D240008CB
:100110009D2400089D2400089D2400089D240008BB
:100120009D2400089D2400089D2400089D240008AB
:080130009D2400089D24000835
:1001380053B94AB9002908BF00281CBF4FF0FF3146
:100148004FF0FF3000F00CB8ADF1080C6DE904CEAB
:1001580000F010F8DDF804E0DDE9022304B0704790
:10016800704700BF034613F8012B002AFBD1181A69
:10017800013870472DE9F04786468C460846089EA8
:10018800154674461946002B40F0C2808542B2FAE3
:1001980082F245D94AB1C2F1200300FA02FC2EFAD4
:1001A80003F3954043EA0C0C94404FEA154EA8B26D
:1001B800BCFBFEF8230C0EFB18CC08FB00F943EA45
:1001C8000C43994528D9EB1808F1FF3704D2994513
:1001D80002D9A8F102072B44A3EB0903A4B2B3FB8D
:1001E800FEFC0EFB1C330CFB00F044EA0344A04267
:1001F80014D92C190CF1FF3304D2A04202D9ACF166
:1002080002032C44241A43EA07401EB1D4400023B9
:1002180034607360BDE8F0874746DDE76346F1E781
:1002280092BB431B01214FEA154EAFB2B3FBFEFC54
:10023800200C0EFB1C330CFB07F840EA03439845DF
:1002480062D9EB180CF1FF3004D2984502D9ACF111
:1002580002002B44A3EB0803A4B2B3FBFEFC0EFB85
:100268001C330CFB07F744EA0344A7424ED92C1968
:100278000CF1FF3304D2A74202D9ACF102032C449B
:10028800E41B43EA0040C0E7C2F1200320FA03F16F
:10029800954090402EFA03F303434FEA154EAFB250
:1002A800B1FBFEFC0EFB1C10190C0CFB07F841EA15
:1002B8000041884504FA02F422D969180CF1FF308C
:1002C80004D2884502D9ACF102002944A1EB080107
:1002D8009BB2B1FBFEFC0EFB1C110CFB07F743EABB
:1002E80001439F420ED9EB180CF1FF3104D29F4213
:1002F80002D9ACF102012B44DB1B41EA004192E731
:100308006046E3E76146F7E76046A3E76346B7E779
:10031800834206D916B9002108467BE7C6E900E002
:10032800F9E7B3FA83F78FB9834201D3724508D846
:10033800BEEB020460EB030301209C461EB90021BA
:1003480068E73846FAE7C6E9004CF8E7C7F1200C39
:10035800BB4022FA0CF41C432EFA0CF120FA0CF3E1
:10036800B84001434FEA14490EFA07F5B3FBF9F810
:100378001FFA84FE09FB18300B0C08FB0EFA43EA3F
:1003880000439A4502FA07F240D9E31808F1FF3012
:1003980004D29A4502D9A8F102002344A3EB0A0328
:1003A80089B2B3FBF9F809FB183308FB0EFE41EAE2
:1003B80003418E452CD9611808F1FF3304D28E45CC
:1003C80002D9A8F10203214443EA0040A0FB0298A5
:1003D800A1EB0E014145CE46434602D306D14D4519
:1003E80004D2B9EB020E68EB04030138002EA6D044
:1003F800B5EB0E0261EB030101FA0CFC22FA07F3DC
:100408004CEA0303F940C6E9003198E74046C5E7DE
:100418004346D9E7F0B583B00F4616461D46062376
:100428006A46012107F041F9041E1BDB9DF80020F4
:100438009DF8013043EA02239B083B809DF8023077
:100448009DF8031041EA0321890831809DF80430A2
:100458009DF8052042EA032292082A8000242046BB
:1004680003B0F0BD2146024807F09FF9F7E700BF47
:10047800D09A000830B583B00546006808F07CFCC7
:10048800002848D0A988344807F08FF901230DF1D6
:1004980007022A21284607F008F9041E41DB9DF8C7
:1004A80007102E4807F081F99DF8072002F0FE0298
:1004B8008DF807202A21284607F0E8F8041E35DBC6
:1004C8006420002105F076F99DF8072042F001022A
:1004D8008DF807202A21284607F0D8F8041E2ADBC1
:1004E8006420002105F066F901230DF107022A2195
:1004F800284607F0DAF8041E22DB9DF80710184892
:1005080007F053F99DF8073013F0010F1DD00024B0
:10051800204603B030BD134807F047F96FF01204C6
:10052800F6E72146104807F040F9F1E721460F4861
:1005380007F03BF9ECE721460D4807F036F9E7E705
:1005480021460C4807F031F9E2E70B4807F02DF98E
:100558006FF00404DCE700BF049B0008489B000818
:10056800CC9B0008EC9A0008289B0008649B0008B4
:10057800889B0008A89B0008E89B000800B583B08A
:10058800174807F012F91748FFF774FF011E1FDB21
:10059800154807F00AF907E0144807F006F941F290
:1005A8008830002105F006F90DF1020301AA0DF1CA
:1005B80006010C48FFF72EFF011EEDDBBDF90230E6
:1005C800BDF90420BDF90610094807F0EEF8E6E782
:1005D800084807F0EAF8002003B05DF804FB00BF04
:1005E800109C0008E09C00085C9C0008809C0008A7
:1005F800A49C0008389C000870B5B2F5802F1FD263
:100608000346042A2CD9043AC81D20F007000A44DE
:1006180022F00702121AD508172A31D91860856006
:100628000023C360B5FA85F1C1F1200EC1F12401A0
:100638008900CE1DF1084B1CAB4231D8002345E0A0
:10064800344C40F2132322463349344807F0C4F8A7
:10065800334807F0C1F840F21321204607F0B3F8F9
:100668002C4C40F21A2322462E492C4807F0B4F8A5
:100678002D4807F0B1F840F21A21204607F0A3F8F8
:10068800244C40F2232322462849244807F0A4F8A2
:10069800254807F0A1F840F22321204607F093F8F7
:1006A8001C4C4FF40E73224621491C4807F094F85D
:1006B8001D4807F091F84FF40E71204607F083F8B3
:1006C80003F1040C002440F82C4001337345F7DB98
:1006D8004C00A4B244804FF0000CA0F800C044F0D5
:1006E800010444806B1A4FEA430E26F00704A51C48
:1006F80020F805E0015322F00704951C20F805C0F6
:1007080002440353538843F00103538007F004F86D
:1007180070BD00BFE89C0008DC9D0008209D000813
:10072800F49D00080C9E0008309E00084C9E0008AE
:10073800789E00082DE9F04F91B005920393134677
:1007480002F004020092C3F3C20210F00303019303
:1007580040F06E8280468A460132041D002850D03F
:10076800B8F1000F05D0A4EB08030433534500F299
:100778006282039B5D1E019B0493069302930026ED
:100788004FF0FF3B0427B946B8F1000F01D0039B97
:100798002360531E0793002A40F35F81059B13F0E3
:1007A800020229D00120A4EB08018B081AB1B1F587
:1007B800007F80F06681029A0F2A00F27281B8F1F8
:1007C800000F00F08281DBB2029901F140026A4415
:1007D80002F8103C02F820BC002800F0728163F097
:1007E8007F0301F140026A4402F8103C049B013384
:1007F8000493029B0133029304340022CC46404602
:100808003DE001F0070A5444CAF1080AA8E70026A7
:1008180034E0002632E0002630E00827BC462DE010
:1008280025292BD10BF1010B01260427BC4625E015
:100838004729EED82A2914D32A39C9B24FF0010E14
:100848000EFA01F14FF6DA7E11EA0E0F16D111F009
:10085800625F40F0C18011F0010F40F08D800026EA
:100868000CE0252903D10BF1FF3B002606E001D956
:10087800002603E0202901D02329CCD11D466B1C7A
:100888006978002900F04C81002EC9D07A29BED899
:100898004C29CDD34C392E2962D80FF2080E5EF8B8
:1008A80021F000BF850800086909000869090008E7
:1008B8006909000869090008690900086909000848
:1008C8006909000869090008690900086909000838
:1008D8006909000879090008690900086909000818
:1008E8006909000869090008690900086909000818
:1008F8006909000869090008E10900086909000890
:100908007909000879090008E1090008E1090008E7
:10091800E10900088508000879090008230800088B
:100928006909000885080008690900083D0A0008E7
:10093800790900083D0A00086909000869090008E2
:10094800450A0008730900087909000869090008C0
:100958006909000879090008690900086D09000893
:1009680000268BE70427BC4688E70427BC4685E7B2
:1009780029786C2924D000263C44013CB4FBF7F4C8
:1009880007FB04F420B1211A6144514500F2568155
:10099800002A58D1BCF1040F00F0A880BCF1080F60
:1009A80040F0AC801A99073121F0070101F10805E0
:1009B8001A95D1E9008908B1C4E9008908345DE7CE
:1009C80013F8021C6C2903D000260427BC46D3E781
:1009D80000260827BC46CFE729784C291AD01A994F
:1009E800073121F0070101F108061A96D1E90067DD
:1009F800073424F0070440B1211A0831514513D8AF
:100A080029784C2913D0C4E9006708340026082740
:100A1800BC4633E71A99073121F0070101F10806AE
:100A28001A96D1E90067E3E76FF01B00FDE0C4E91F
:100A38000067EAE700260427BC469DE73246002601
:100A48000427BC4698E7E14680461A9A111D1A9178
:100A580012680392079A1D4696E67D4B039A9A42BE
:100A680004D37C4B9A420AD3002300E00023002BD6
:100A78007FF494AE059B03F00202002093E6012365
:100A8800F5E7754C4FF41F7322467449744806F015
:100A9800A3FE744806F0A0FE4FF41F71204606F02E
:100AA80092FE6D4C40F2812322466C496C4806F058
:100AB80093FE6D4806F090FE40F28121204606F034
:100AC80082FE069B0133069393E610B10AF1010AF0
:100AD8008FE6009B13B10AF1020A8AE60398FFF732
:100AE80041FB0AEB000303F1020A82E61A990D1D85
:100AF8001A95096800B121600434BFE6E146564CF6
:100B080040F2C62322465549554806F065FE494637
:100B1800564806F061FE40F2C621204606F053FE14
:100B28008046231AB3F5806F13D210B300220260F7
:100B38009B080370009B03B3069BC370049B88F853
:100B480002309BBB019DDDF80890DDF810B0039FD3
:100B58004DE0414C40F2D22322464049404806F03D
:100B68003BFE434806F038FE40F2D221204606F00C
:100B78002AFE5344A3F1080057E0069B4370DDE7C3
:100B880001339842DED903F140026A4412F8101C7E
:100B980012F9102C002AF3DA01F07F01A4EB080205
:100BA800013252454DD804F8011BE9E7019B029830
:100BB800E7E7009B43B305F140036B4413F8203C7F
:100BC80004F8013B019EA4EB080333440133534569
:100BD8003AD805F140036B4413F8103C04F8013B84
:100BE80032463946204608F0DBF934440135A94538
:100BF80019D9BBF1000FDCD005F140036B4413F9A0
:100C0800103C002BD5DAF1E705F140036B4413F8EB
:100C1800103C58F82370002248F823203846FFF784
:100C2800A1FA461CCFE7A4EB080011B0BDE8F08F8D
:100C38006FF00D00F9E76FF01B00F6E76FF01B008F
:100C4800F3E76FF01B00F0E76FF01B00EDE700BF64
:100C580064930008C8BF0008A49E0008ECA100081F
:100C6800209D0008EC9E0008109F00082C9F00089B
:100C7800449F0008014B1860704700BF0000002027
:100C880080B505460E461746984604F04DFE0346C5
:100C980008F05AFB0446DFF8189049F8003042463D
:100CA80039463046A84754F8090001F0C5FA00BF94
:100CB80008000000034A536843F002035360002011
:100CC800704700BF002004E010B5EFF31184102333
:100CD80083F31288BFF36F8F224805F0C1F858B12B
:100CE800204805F0E7F8204B1B68E3B91F4A136852
:100CF80043F4807313600FE01D4C882322461D497E
:100D08001D4806F069FD17491C4806F065FD882155
:100D1800204606F058FD33B9144B1B6813F4807352
:100D2800F9D00123F7E7104A1368013313600D481F
:100D380005F0A6F820B184F31188BFF36F8F10BDBA
:100D48000B4C4FF49A7322460D490B4806F044FDAC
:100D580004490C4806F040FD4FF49A71204606F00D
:100D680032FD00BF500200204C0200200004005851
:100D7800709F0008A09F0008209D0008B89F0008E9
:100D8800D09F0008E89F000810B584B0EFF31184E5
:100D9800102383F31288BFF36F8F2D4805F060F896
:100DA800F8B12B4805F086F82A4B1B6843BB2A4B41
:100DB8000122BFF35B8F53E8001F002903D143E8EA
:100DC80000200028F7D1BFF35B8F1FD1234B02937C
:100DD80000200190009003460222214906F00BFDF5
:100DE80014E0204C882322461F49204806F0F4FCD2
:100DF80017491F4806F0F0FC8821204606F0E3FC5E
:100E0800012B0DD0134A1368013B1360104805F0FD
:100E180037F858B184F31188BFF36F8F04B010BD51
:100E2800144A136823F480731360EBE70D4C4FF4F6
:100E38009A73224610490D4806F0CEFC04490F4823
:100E480006F0CAFC4FF49A71204606F0BCFC00BFBD
:100E5800500200204C0200204802002000A0000898
:100E6800F8970008709F0008A09F0008209D0008C0
:100E7800B89F000800040058D09F0008E89F0008A9
:100E8800084B1A6842F400721A601A6842F48062C9
:100E98001A601A6842F480721A60034B034A1A6097
:100EA800704700BF004000584000002000093D0086
:100EB80010B143685879704710B5064C40F23513A5
:100EC80022460549054806F087FC40F235112046C0
:100ED80006F079FC44A000087CA00008209D0008CA
:100EE80010B143681971704710B5054CE1232246CB
:100EF8000449054806F070FCE121204606F063FC31
:100F080044A000087CA00008209D000810B540B14E
:100F180004460368DB6803B19847636801229A7145
:100F280010BD054C8C2322460449054806F054FCA4
:100F38008C21204606F047FC44A000087CA000084D
:100F4800209D000810B520B10268126962B190476F
:100F580010BD064CA02322460549064806F03CFC75
:100F6800A021204606F02FFC0020F1E744A000084D
:100F78007CA00008209D000810B518B1026892688E
:100F8800904710BD054CD22322460549054806F076
:100F980023FCD221204606F016FC00BF44A000081E
:100FA8007CA00008209D000810B520B171B102682E
:100FB8001268904710BD0B4CB42322460A490B48CF
:100FC80006F00AFCB421204606F0FDFB054CB523CB
:100FD80022460749054806F0FFFBB521204606F0E2
:100FE800F2FB00BF44A000087CA00008209D000878
:100FF80094A0000838B50546144C00E01034144B92
:101008009C4212D8124B9C421FD22046FFF750FF39
:101018000028F3D02946204606F0FEFB0028EDD034
:1010280029462046FFF7C0FFE8E70A4C4FF4007353
:1010380022460949094806F0CFFB094806F0CCFBCF
:101048004FF40071204606F0BEFB38BD0898000832
:1010580018980008A8A00008D8A00008209D00083B
:10106800FCA0000808B507F097FF0022431819D222
:1010780013440D4AA2FB03CE2EF0030C0CEB9E0C7E
:10108800A3EB0C03C01A61F100014FF0CC3300FB55
:1010980003F302FB0133A0FB02021344400840EAB9
:1010A800C37008BD0122E3E7CDCCCCCC2DE9F041DB
:1010B80007460546EDB195FAA5F6B6FA86F60E4C42
:1010C80004EB06140123B3406FEA030825EA03057D
:1010D800237B002BEED02046FFF734FF0028E9D110
:1010E80007EA0807636804221968204606F0C3FB6C
:1010F800E0E73846BDE8F081089800082DE9F0419E
:10110800314B324A9B1A8F2B12D880460F46304BF0
:10111800BFF35B8F53E8006F721C43E8002100297E
:10112800F8D1BFF35B8F002E4AD1284C002514E07C
:10113800284C4FF4A67322462749284806F04CFB52
:101148004FF4A671204606F03EFB63680422196836
:10115800204606F090FB013510341B4B9C4211D8F9
:10116800194B9C421ED2237B002BF4D02046FFF75C
:10117800CDFE2046FFF7E6FE0028E6D00123AB406F
:101188001E43E8E7134C4FF4AC7322461449134846
:1011980006F022FB134806F01FFB4FF4AC71204603
:1011A80006F011FBB8F1000F0BD056B13046FFF72F
:1011B8007DFF0646002FF8D00A2006F034FBF4E73E
:1011C80000263046BDE8F081189800080898000805
:1011D80060020020A8A000081CA10008209D0008AB
:1011E800D8A00008FCA00008014B53F82000704765
:1011F8004CA1000848B108B5054A1060054B1960B4
:10120800084600F04FFB002008BD6FF0150070473E
:10121800040000205402002010B50023164A137061
:10122800164A1360164A13604FF47A711548FFF78F
:10123800E1FF154C08E01449611A09110131C9B2DE
:101248002046FFF74DFE1034104B9C4203D80F4B3D
:101258009C42F0D310BD0E4C40F2271322460D4994
:101268000D4806F0B9FA0D4806F0B6FA40F2271113
:10127800204606F0A8FA00BF750400205802002096
:101288005C0200206D1000080898000818980008F3
:10129800A8A00008D8A00008209D0008FCA000080D
:1012A800174B1B7803B1704710B500210120FFF7D9
:1012B80025FF144C00E01034134B9C420BD8124B02
:1012C8009C4218D22046FFF7F3FD0028F3D02046B1
:1012D800FFF752FEEFE70D4C40F2C51322460C49CA
:1012E8000C4806F079FA0C4806F076FA40F2C51177
:1012F800204606F068FA024B01221A7010BD00BFA2
:10130800750400200898000818980008A8A000088C
:10131800D8A00008209D0008FCA00008014B01226D
:101328001A707047740400200D4BBFF35B8F53E8AD
:10133800001F013143E80012002AF8D1BFF35B8F88
:1013480000B97047074BBFF35B8F53E8001F0139A3
:1013580043E80012002AF8D1BFF35B8FF1E700BF22
:10136800580200205C02002010B50446044B1B689C
:101378009847A0602146034806F050FA10BD00BF08
:10138800040000206400002028B14268116043680E
:1013980001225A71704710B5064C4FF48D732246DE
:1013A8000549064806F018FA4FF48D71204606F0F4
:1013B8000AFA00BF44A000087CA00008209D00088D
:1013C8000248034BC01AC008704700BF08980008BD
:1013D8009097000810B50C46FFF7F2FFA04203D91A
:1013E800024B53F8340010BD0020FCE7909700082A
:1013F8002DE9F04F87B004AF81460D4690461E4652
:10140800D7F830B0D7F838A0BAF1000F28D0FB6B66
:101418007B60009353467A6B10210020FFF78AF90E
:10142800002810DBB0F5006F1BD340F2FF73039365
:101438002B4B029300200190009003460222294979
:1014480006F038FA3BE0284C40F26513224627495B
:10145800274806F0C1F940F26511204606F0B3F9B5
:101468000020014600EB0B03173300246FF3000440
:101478006FF341046FF3820469F3C50468F38814B9
:1014880060F353246BF31F5423F00703ADEB030DF4
:101498000DF110086B4613F120000AD0BAF1000FC5
:1014A80007D0FB6B009353467A6BFFF743F900288C
:1014B80009DB334622462946404606F0E4F90C3754
:1014C800BD46BDE8F08F084C4FF4C4732246074967
:1014D800074806F081F94FF4C471204606F073F905
:1014E800F0A10008C0970008B8A10008E4A100080E
:1014F800209D0008406820B1034BC01A40F3CF007C
:1015080070474FF0FF307047909700080EB400B551
:1015180082B0014603AB53F8042B0193034801F052
:101528005BFA02B05DF804EB03B070470979000874
:1015380010B584B011F0440F05D01A4B1B6833B9AD
:10154800002004B010BD1849FFF7E0FFF9E717497C
:101558000968B2FBF1F2B2FBF3FC03FB1C224FF467
:101568007A7E0EFB02F2B2FBF3F403FB14210EFBAE
:1015780001F1B1FBF3F10E4AA2FB0C32D20A4FF48F
:10158800616303FB12CC0B4BA3FB0CE35B090291D9
:101598000194C3EB0311ACEB810100910649FFF7FD
:1015A800B5FFCEE76802002028A2000864020020E8
:1015B800C5B3A2918988888834A2000861B108B5AA
:1015C8002AB1064A52F8232012B9054A00E0044A13
:1015D8000449FFF79BFF08BD704700BFF8A2000849
:1015E80050A2000858A200082DE9F0410546174608
:1015F800069EDDF81C8081B900242EB132461149BF
:101608002846FFF783FF0444B8F1000F14D06FB1E8
:10161800099B042B13D00C4909E00C4B099A53F889
:1016280022200B49FFF772FF0446E6E706494246C7
:101638002846FFF76BFF04442046BDE8F0810549C2
:10164800F5E700BF70A2000860A200080CA300081C
:1016580068A200085CA200082DE9F04F87B0049248
:1016680005939DF84C60042E30D805460C4601F0D1
:10167800020B01F0010AC1F3C00801F4807906F0F9
:10168800F8F8024678B31C492846FFF73FFF07469B
:10169800BBF1000F29D132465146284606F04EF9D3
:1016A800B9F1000F01D0002311930396129B029306
:1016B800119B0193109B00930023049A41462846EE
:1016C800FFF792FF384407B0BDE8F08F0B4C40F2AB
:1016D800462322460A490B4806F07EF840F2462186
:1016E800204606F070F80027D2E7059A21462846DA
:1016F800FFF71EFF0744CEE7B0A2000874A2000857
:10170800A4A20008209D000811F0100F0BD108B505
:1017180011F0200F03D00449FFF7F8FE08BD034974
:10172800FFF7F4FEFAE770473CAB0008B4A20008E4
:101738002DE9F04105460F46164698460699FFF7EB
:10174800E3FF0024444505DA24492846FFF7DEFE76
:101758000134F7E7002409E020492846FFF7D6FEC0
:101768000BE01F492846FFF7D1FE01340F2C0CDC93
:10177800002C02DD14F0070FEED0B442F1D23A5D2E
:1017880018492846FFF7C2FEEFE717492846FFF732
:10179800BDFE002409E011492846FFF7B7FE0BE01B
:1017A80012492846FFF7B2FE01340F2C13DC002C37
:1017B80002DD14F0070FEED0B44207D23A5D0C4BAD
:1017C8009B5C13F0970FEBD12E22E9E703492846DB
:1017D800FFF79CFEE8E7BDE8F08100BF6CA20008B7
:1017E800C0A20008B8A20008C4A20008C8A2000845
:1017F800B8BE00082DE9F04184B004469DF82C508D
:101808000C9F0E9EA5B9012B20D020484FF0000850
:1018180037B13B4622461E4905F091FF002819DBE7
:101828002EBB6DBB204606F054F804B0BDE8F0812D
:1018380003950A980290019300920B4600220F9993
:101848002046FFF709FF80461248E1E711484FF0AC
:101858000008DDE7104C4FF4287322460F49104862
:1018680005F0BAFF4FF42871204605F0ACFF0F9B36
:101878000093434632460D99204606F077F8D0E7A4
:101888002A460F99204606F065F8CBE72779000825
:10189800E12900080979000874A20008CCA2000810
:1018A800209D0008074B01221A6004E04008054A01
:1018B80013685B001360044B9842F7D8034B186019
:1018C800704700BF6402002040420F0068020020F9
:1018D80070B506460D46002405E0315D044883686E
:1018E8005B6898470134AC42F7D3284670BD00BF07
:1018F800C494000810B543681C68094807F03CFA0E
:1019080018B123685B685C6010BD064C99232246B9
:101918000549064805F060FF9921204605F053FF68
:10192800C494000820A3000860A30008209D0008B4
:10193800014B036000207047D0A3000808B5034896
:10194800034A121A002106F094F808BDA8000020E6
:101958007804002008B50648064A121A064906F017
:101968008CF80648064A121A064906F086F808BD99
:1019780000000020A4000020C8BF000800000020CC
:1019880000000020C8BF000870B586B0054603688F
:10199800426881681C4E0591049203931B4B029385
:1019A800002401940094234601223146204606F083
:1019B80068F8EB682A696969059104920393144BE6
:1019C800029301940094234601223146204606F0F2
:1019D80058F8EB6903930F4B029301940094234644
:1019E80001223146204606F04CF8AB6903930A4BB6
:1019F800029301940094234601223146204606F0C2
:101A080040F806B070BD00BFE0970008D0A30008FA
:101A180000A4000830A4000840A4000830B585B030
:101A280004460D4611B10846FFF7AEFF012C05D05C
:101A38002946204602F020FC05B030BDEFF30583AF
:101A4800103B0393054B029300200190009003463E
:101A58000122034906F015F8EAE700BF70A4000860
:101A6800E097000830BFFFF7FDBF00BF38B5044658
:101A7800054D2A46054907F093FA054A00216019E1
:101A880007F09CFA38BD00BF000000001898000855
:101A98000400000070B50646054D064B1D444C1B5E
:101AA8002046FFF7E3FF083C346705F1080070BDE6
:101AB8000000000004000000054B5A699B689A4228
:101AC80004D0044A536843F080535360704700BF02
:101AD8003804002000ED00E081690D4B5A6942F49A
:101AE80080725A61BFF34F8FBFF36F8F31F8021CBA
:101AF8005A6922F480725A61BFF34F8FBFF36F8F18
:101B08004DF60273994201D00020704701207047BA
:101B180000ED00E010B584B000241C7002F07F4492
:101B2800B4F17F4F19D102F00C04082C05D012F043
:101B3800080F0FD0084604B010BD094B02930024CB
:101B480001940094234601220649204605F0B6FF79
:101B58002046F0E701221A70EDE70020EBE700BF0E
:101B680084A40008E0970008F0B585B005460F4644
:101B78001446444B02930020019000900346012232
:101B8800414905F09BFF414B9B6A13F4805F21D1CB
:101B980016263E4B9B6A13F4006F27D13B4B9B6A7A
:101BA80013F4007F2ED1394B9B6A13F4806F50D108
:101BB800364B9B6A13F4807F57D1344A936A43F4B7
:101BC8007F4393620121284605F076FF2070304656
:101BD80005B0F0BD2E4B0293002001900090034603
:101BE8000122294905F06AFF1726D2E7294B0293FB
:101BF80000200190009003460122234905F05EFF72
:101C08001826CBE7244B029300200190009003464E
:101C180001221D4905F052FF1C4B9A6B9B6A13F475
:101C2800004F01D11926BEE703921C4B02930020F6
:101C38000190009003460122134905F03FFF37B198
:101C4800124A936A23F4004393621926ABE71926D4
:101C5800A9E7134B0293002001900090034601224C
:101C6800094905F02BFF1A26A2E70E4B0293002024
:101C78000190009003460122034905F01FFF1B262F
:101C88009BE700BFB0A40008E097000800ED00E063
:101C9800C8A40008DCA40008F0A400080CA50008EB
:101CA80024A5000840A5000800B585B03D4B029367
:101CB800002001900090034601223B4905F0FEFEFA
:101CC8003A4B9B6A13F0007F23D11D20374B9B6A48
:101CD80013F0807F29D1354B9B6A13F4002F30D144
:101CE800324B9B6A13F4802F37D1304B9B6A13F425
:101CF800003F3ED12D4B9B6A13F4803F45D12B4AC0
:101D0800936A6FEA03436FEA1343936205B05DF881
:101D180004FB274B02930020019000900346012208
:101D2800214905F0CBFE1E20D0E7224B029300206C
:101D380001900090034601221B4905F0BFFE1F20B9
:101D4800C9E71D4B02930020019000900346012231
:101D5800154905F0B3FE2120C2E7184B0293002075
:101D680001900090034601220F4905F0A7FE2220AA
:101D7800BBE7134B02930020019000900346012219
:101D8800094905F09BFE2320B4E70E4B029300207F
:101D98000190009003460122034905F08FFE24209C
:101DA800ADE700BF58A50008E097000800ED00E087
:101DB80070A5000884A50008A0A50008C0A5000813
:101DC800E8A5000804A6000800B585B00020087042
:101DD800054B02930190009003460122034905F048
:101DE8006DFE05B05DF804FB30A60008E09700081A
:101DF80000B587B00F2910DC094B10390491039303
:101E0800084B0293002001900090034601220649E6
:101E180005F054FE07B05DF804FB044BEDE700BF86
:101E280054A6000888A60008E09700086CA60008D9
:101E38002DE9F04184B004460E461546554B0293F1
:101E480000200190009003460122534905F036FE18
:101E5800524B9B6A13F0100F2ED110274F4B9B6AE1
:101E680013F0080F34D14D4B9B6A13F0020F3BD18E
:101E78006FF01508494B9B6A13F0010F5FD1474B70
:101E88009B6A13F0100F04D1444B9B6A13F0020FA6
:101E980004D0424B5B6813F4006F5CD13F4A936AED
:101EA80043F0FF0393620121204605F005FE2870E8
:101EB800384604B0BDE8F081394B02930020019008
:101EC800009003460122344905F0F8FD1127C5E7C3
:101ED800344B0293002001900090034601222E49C2
:101EE80005F0ECFD1227BEE72F4B0293002001906E
:101EF800009003460122284905F0E0FD274BD3F85E
:101F080034809B6A13F0800F03D16FF015081327F4
:101F1800B0E7CDF80C80254B02930020019000908B
:101F2800034601221C4905F0C9FD36B11B4A936AD4
:101F380023F08003936213279CE713279AE71C4B2F
:101F4800029300200190009003460122124905F0F7
:101F5800B5FD142793E72146404600F03DFAA0B9A5
:101F68000E4B9B6A13F0100F98D0124C40F22713B7
:101F780022461149114805F02FFC114805F02CFCA8
:101F880040F22711204605F01EFC80F3098802273D
:101F980084E700BF9CA60008E097000800ED00E079
:101FA800B4A60008DCA40008E8A6000800A70008FA
:101FB80018A7000838A700086CA70008209D00088B
:101FC800B8A7000870B584B006460D46484B029382
:101FD800002401940094234601224649204605F036
:101FE8006DFD2C70444BDC6A14F002042AD1424B7C
:101FF800DB6A002B34DB404BDB6A13F0804F66D082
:102008003E4B02930020019000900346012239497B
:1020180005F054FD3046FFF75FFD60BB364B9B6A09
:1020280013F0FF0F35D1344B9B6A13F47F4F37D130
:10203800314B9B6AB3F5803F39D33046FFF734FE06
:1020480004460AE02E4B0293002401940094234690
:1020580001222849204605F031FD204604B070BD14
:10206800284B029300200190009003460122214949
:1020780005F024FDF1E733680393234B0293002016
:1020880001900090034601221A4905F017FD3468B3
:10209800E3E72A4601213046FFF7CAFE0446DCE79B
:1020A8002A4601213046FFF75FFD0446D5E7174C65
:1020B80040F2ED2322461649164805F08DFB1648D6
:1020C80005F08AFB40F2ED21204605F07CFB0F4C21
:1020D8004FF43C7322460E490E4805F07DFB0F482D
:1020E80005F07AFB4FF43C71204605F06CFB00BF0D
:1020F800DCA70008E097000800ED00E028A8000829
:10210800F4A7000818A8000848A8000838A700087D
:10211800ECA10008209D000864A8000888A8000811
:1021280030B58BB0274B5D68C5F30805002383F3F2
:102138001188BFF36F8F0DF12603FFF7EBFC58B141
:1021480004460DF12702294605F0C7FC05469DF80F
:1021580027308BB10BB030BD1B4C40F214432246E4
:102168001A491B4805F038FB1A4805F035FB40F2C0
:102178001441204605F027FB0DF1040C2068616826
:10218800A268E368ACE80F0020696169A269E369A5
:10219800ACE80F009DF826304BB1089BC3F308024A
:1021A8005AB96FEA53236FEA4323089305E0089B63
:1021B80023F4FF7323F00103089301A92846FFF7CE
:1021C8002DFCC7E700ED00E038A70008B8A8000814
:1021D800209D0008CCA80008044B5A6942F0100260
:1021E8005A615A6922F008025A61704700ED00E00E
:1021F800EFF30880EFF3098101B57246FFF790FF0E
:1022080001BD00BF0A4880F30888102080F31188B8
:1022180008484FF40461401880F30988EFF31480EC
:102228000221084380F31488BFF36F8F05F085FC03
:10223800001200208004002008B50A4B9B688342E6
:1022480002D003F077FB08BDEFF30583002BF8D02D
:10225800054B5A6842F080525A605A6A22F400428A
:102268005A62EEE73804002000ED00E014498A685D
:102278004FF030001044EFF3098C80E8F01F102075
:1022880080F31288BFF36F8F0E4F4FF000664A69D4
:102298008A603E60106F0C4C2060506F00235367BB
:1022A80080F3118804B5104600F012F9BDE8044027
:1022B80002F1300090E8F01F8CF3098870470000A5
:1022C8003804002004ED00E0940200201EF0040F02
:1022D8000CBFEFF30880EFF30980816911F8021C45
:1022E8000229FFD001B5724605F0DAFB01BD00BF37
:1022F800002807DB00F01F02400901239340024A2F
:1023080042F82030704700BF00E100E0002808DBF9
:102318000901C9B200F1604000F5614080F800137E
:10232800704700F00F000901C9B2014B19547047FA
:1023380014ED00E070B505460C4601310F2903D8AD
:1023480040B2FFF7E3FF70BD084E6B2332460849E1
:10235800084805F041FA0F232A462146064805F0A9
:102368003BFA6B21304605F02EFA00BF0CA9000895
:1023780044A90008209D000860A90008044B23F028
:102388007F03044A9360BFF34F8FBFF36F8F70478B
:102398000000000800ED00E010B4A2F120040D498F
:1023A80042F8081C21F0010142F8081C42F8203CC0
:1023B800019B42F81C3C029B42F8183C039B42F8E4
:1023C800143C4FF0807342F8043C046500234367D3
:1023D80010BC7047890C00080E4B9B68A3B110F124
:1023E800160F0AD01A6EA2F1400C84450ED882420C
:1023F8000ED98A4206D8002070471A6E8A4201D840
:1024080000207047186E7047002070470020704702
:10241800002070473804002008B50E4615460B4AC0
:102428009060026F0A4B1A6000F052F82C4686F34F
:1024380009880020034B98472046002100220023EA
:10244800014C20475F7B0008890C000838040020F5
:1024580094020020014B10221A61704700ED00E041
:10246800002206E003F00F030949194410230B76F4
:1024780001323D2A0ADC53B2002BF3DB03F160433F
:1024880003F56143102183F80013F1E7704700BF9B
:10249800FCEC00E008B5EFF30583103B044A02EBBF
:1024A800C301496852F833008847FFF705FB08BDA8
:1024B8002495000808B5034B034A0121034800F09E
:1024C800BFF908BD0000012000000020A0A90008F5
:1024D80008B5036E403B0548036040234360044B46
:1024E8008360012100F0CEF908BD00BF98020020EA
:1024F80000000B15084AC2F898000B6823F01F0368
:10250800034343F01003C2F89C308B6843F0010387
:10251800C2F8A030704700BF00ED00E010B584B0ED
:1025280004460D4BD3F89030C3F30723013B984280
:1025380004D8FFF7DFFF204604B010BD0390074B17
:10254800029300200190009003460122044905F0FF
:1025580027FB6FF01500EFE700ED00E0B0A90008D9
:10256800D89700082DE9F04385B080460F46994674
:102578001646002509E02146F0B205F020FB064684
:1025880010F1160F1ED001360135BD421ADA05EBDF
:10259800450408EB84046268002AF5D0B9F1000FFD
:1025A800E9D0204605F0EBFA0028E4D10395074B63
:1025B80002930190009003460122054905F0F0FAC4
:1025C8006FF01506304605B0BDE8F083D8A90008BD
:1025D800D897000810B5034C01232278FFF7C2FFF3
:1025E800207010BD7604002008B500230B4A12782D
:1025F800FFF7B8FF10F1160F0FD0024606E0084BA0
:10260800C3F898200021C3F8A0100132044BD3F876
:102618009030C3F307239342F1DC08BD7604002011
:1026280000ED00E0F0B585B0054603A8FFF780F996
:102638000646002425E0B3F5801F21D1506851F8E3
:102648000C109368202B67D9B3F1004F66D8013B73
:10265800B3FA83F3C3F11F035B0003F03E0343F0B7
:10266800885343F4302300900191029369462878F7
:10267800FFF754FF0028C0F2BE802B7801332B707F
:102688000134B44280F0BA804FEA041C039901EB8C
:102698000412D068030D1B05B3F5000F71D01ED8C6
:1026A800B3F5001F3CD0B3F5800FC4D1506851F882
:1026B8000C109368202B60D9B3F1004F5FD8013B11
:1026C800B3FA83F3C3F11F035B0003F03E0343F047
:1026D800C06343F40033009001910293C6E7B3F15D
:1026E800807F69D0B3F1007FCAD1506851F80C10CF
:1026F8009368202B7BD9B3F1004F7AD8013BB3FA0A
:1027080083F3C3F11F035B0003F03E0343F480230C
:10271800009001910293A9E70823A0E73E239EE7D2
:10272800576851F80C109368202B22D9B3F1004F49
:1027380021D8013BB3FA83F3C3F11F035B0003F015
:102748003E0343F0885343F400230097019102931A
:1027580010F0010F8AD02B4C832322462A492B489C
:1027680005F03AF82A4805F037F88321204605F0A5
:102778002AF80823E5E73E23E3E70823A7E73E23F3
:10278800A5E7506851F80C109368202B10D9B3F1C5
:10279800004F0FD8013BB3FA83F3C3F11F035B006B
:1027A80003F03E0343F082730090019102935DE7CA
:1027B8000823F7E73E23F5E7506851F80C109368B3
:1027C800202B10D9B3F1004F0FD8013BB3FA83F394
:1027D800C3F11F035B0003F03E0343F088730090CE
:1027E8000191029342E70823F7E73E23F5E7082320
:1027F8008CE73E238AE76FF0150000E0002005B063
:10280800F0BD00BFFCA900082CAA0008209D000804
:1028180054AA0008044B0522C3F89420BFF34F8F35
:10282800BFF36F8F704700BF00ED00E0BFF35F8F0D
:10283800024B0022C3F89420704700BF00ED00E06F
:1028480038B50C46FFF7C6FE10F1160F00D038BD9C
:10285800084D40F283132A460749084804F0BCFF94
:102868002146074804F0B8FF40F28311284604F0D7
:10287800AAFF00BFFCA90008ECA10008209D0008E1
:1028880084AA000838B50C46FFF7AEFE10F1160F03
:1028980000D038BD084D4FF4D1732A46074908487F
:1028A80004F09AFF2146074804F096FF4FF4D171CF
:1028B800284604F088FF00BFFCA90008ECA1000826
:1028C800209D0008B0AA000838B5394B1D68394B5F
:1028D800D3F89030C3F307239D4203D8FFF7A6FF30
:1028E80000241FE0344C4FF4FE7322463349344829
:1028F80004F072FF2F4BD3F89020C2F30722294629
:10290800304804F069FF4FF4FE71204604F05BFF85
:10291800274B5B6804EB440103EB81012046FFF77A
:10292800E9FD0134A542F3D827480570FFF77AFE80
:1029380010F1160F02D0244B1A7816E01E4C40F204
:10294800262322461D491E4804F046FF1F4804F06E
:1029580043FF40F22621204604F035FF154BC3F80B
:1029680098200021C3F8A0100132124BD3F8903000
:10297800C3F307239A42F1DBFFF74CFF0D4BD3F863
:102988009030C3F30723082B01D1002038BD0A4C2F
:1029980040F26E2322460E49094804F01DFF0D48F7
:1029A80004F01AFF40F26E21204604F00CFF00BF2D
:1029B800B4AB000800ED00E0FCA90008ECA1000899
:1029C800209D0008E0AA00087604002014AB000847
:1029D80040AB000890AB000830B587B00D461146F3
:1029E8000024009401940294039404940594022210
:1029F8008DF80220044A0192049005951A4668460B
:102A080003F0A8FD07B030BD057C000808B5024BEF
:102A18001B689847002008BDA4020020034B1860DB
:102A2800034A937843F0020393707047A40200208E
:102A38001000002008B5064921F00701C1F1005235
:102A480002F580320348FDF7D7FD002008BD00BF1E
:102A580047120020A8020020002399420ADD10B482
:102A680000EB030C044C04F80C2001339942F7DC0A
:102A780010BC7047704700BF20000020F8B507461B
:102A8800002401E00134E4B27B78A34217D93D78F1
:102A98006619304600F024F90028F3D0304600F0DB
:102AA8004FF9074B53F83620002AEBD006F01F05E4
:102AB80003EBC60359680120A8409047E2E7F8BD38
:102AC800B402002001F0030C0CF102020B4B53F886
:102AD80022200B0C22EA114193FAA3F35BB1B3FA5B
:102AE80083F303F00F03984001430CF1020C034AEF
:102AF80042F82C1070472023F3E700BF0000014084
:102B080000F003030233074A52F82320030C02EAB9
:102B1800104093FAA3F31BB1B3FA83F3D84070477C
:102B28002023FBE70000014010B590B10246B0FA3F
:102B380080F3C3F11F03DBB20F2B0AD80A49C8562A
:102B48000A4BD3F880100A43C3F8802004F0EAFF48
:102B580010BD074CBD2322460649074804F03CFE39
:102B6800BD21204604F02FFE200000200008005858
:102B7800E4AB000828AC0008209D0008034AD2F8FE
:102B8800803023EA0003C2F88030704700080058FC
:102B9800032927D8DFE801F0020C151E174B1A6825
:102BA80022EA00021A605A6822EA00025A60704754
:102BB800124B1A6802431A605A6822EA00025A60E5
:102BC80070470E4B5A6802435A601A6822EA00029C
:102BD8001A607047094B1A6802431A605A68104312
:102BE8005860704710B5064CF82322460549064838
:102BF80004F0F2FDF821204604F0E5FD0008005835
:102C0800E4AB0008ECA10008209D000810B498B1BE
:102C1800B0FA80F3C3F11F03DBB29C460D4850F8AD
:102C2800330088420AD088B90A4B43F83C1003EBBA
:102C3800CC035A6010BC7047FF23EEE7054C04EB49
:102C4800C3035B689342EED10020F3E76FF00F00F7
:102C5800F0E700BFB402002060B1B0FA80F3C3F11E
:102C68001F03DBB2044A002142F8331002EBC3020F
:102C780051607047FF23F5E7B402002000B587B024
:102C8800144806F079F8B0B1002304930593BDF811
:102C98001030542262F30B03ADF810304FF48073F8
:102CA80005930C4B9B681B688BB104A9094898478E
:102CB80007B05DF804FB084B0293019000900346AF
:102CC8000122064905F00EF86FF01200F0E76FF0E8
:102CD8005700EDE7E4930008C0AC00089897000897
:102CE80000F01F02012393403F2807D81F2818D857
:102CF800104AD268934312D00020704710B584B0B0
:102D080003900D4B02930024019400942346012262
:102D18000A49204604F0E6FF204604B010BD012011
:102D28007047044AD26A934301D0002070470120BB
:102D3800704700BF0008005864AC00089897000866
:102D480000F01F02012393403F2805D81F2815D8FB
:102D58000C4AD3600020704700B585B003900A4B39
:102D6800029300200190009003460122074904F0D5
:102D7800B9FF6FF0150005B05DF804FB014AD36296
:102D8800002070470008005864AC000898970008B5
:102D980039B133B1B0FBF1F002FB00F0B0FBF3F056
:102DA800704710B5054C612322460549054804F0D3
:102DB80013FD6121204604F006FD00BF0CAD00089C
:102DC80050AD0008209D000870B50C461546414BD3
:102DD8001E680121304604F098FF2388C3F30B03D3
:102DE800013B632B70D8DFE803F0485C60646742FE
:102DF8006B6D6F4A536F6F6F6F6F6F6F6F6F6F6F22
:102E08006F6F6F6F6F6F6F6F6F6F6F6F6F6F6F6FCA
:102E18006F6F6F6F6F6F6F6F6F6F6F6F6F6F6F6FBA
:102E28006F6F6F6F6F6F6F6F6F6F6F6F6F6F6F6FAA
:102E38006F326F6F6F326F6F6F406F6F6F6F6F6F43
:102E48006F426F6F6F426F6F6F446F6F6F462E6088
:102E58002368B3F5805F3AD32A68C3F31333013389
:102E6800B2FBF3F22A60002030E02860F0E7286027
:102E7800EEE72860ECE72860EAE72E60E8E700F074
:102E880087F8022306220121FFF782FF2860DFE787
:102E980000F07EF8022306220121FFF779FF28605F
:102EA800D6E74FF400432B60D2E74FF4FA432B6088
:102EB800CEE7094B2B60CBE704F02AFF2860C7E771
:102EC8002E60C5E72E60C3E76FF0850070BD002057
:102ED800FCE700BF400000200024F40038B505F0EE
:102EE8005FF8284C204605F058F801F049F84FF0F3
:102EF800B043D3F8083103F00F03234A52F82350A4
:102F0800B0FBF5F51368B4FBF3F4A54231D304F034
:102F18005BFF04F0B0FF4FF0B0439A6822F0F00274
:102F28009A609A6842F003029A604FF0B0439B6837
:102F380003F00C030C2BF8D1A5421ED2134B114AF7
:102F48001A604FF0B0439A6822F4E0629A609A6877
:102F580022F460529A60D3F8082122F0F002C3F8F4
:102F68000821D3F8082122F00F02C3F80821002015
:102F780038BD204601F08EF8C9E7204601F08AF8EE
:102F8800DCE700BF006CDC02ECB300084000002066
:102F9800004870470024F40008B504F0FFFF4FF024
:102FA800B042D168064B0B4040F0005040F4C0607E
:102FB8000343D360D36843F08053D36008BD00BF98
:102FC8008C80FF1F10B504460A2806D0E1B20648D7
:102FD80083685B689847204610BD034883685B6830
:102FE8000D219847F2E700BFC494000810B5044CBF
:102FF8002046FFF713FD2046FDF73CFE10BD00BF3D
:10300800CD2F000808B5054805F0B6FE18B1FFF742
:10301800EDFF002008BD6FF01200FBE7C494000824
:1030280008B5436841B103F10C010B4B9B681B6861
:103038005BB10948984708BD03F10C01064B9B6832
:103048005B682BB104489847F5E76FF05700F2E743
:103058006FF05700EFE700BFE493000870B569B15F
:10306800044616460D464B68B3B1036813B304F023
:10307800ABFF50BBFEB96FF0150022E0164C4F2392
:1030880022461649164804F0A7FB164804F0A4FB8C
:103098004F21204604F097FB0F4C5023224612493B
:1030A8000F4804F099FB114804F096FB5021204684
:1030B80004F089FB32B123682B602560636843B153
:1030C800002070BD6FF01500FBE7002EF3D1002043
:1030D800F7E765600020F4E778AD0008B4AD0008B4
:1030E800209D0008C0AD0008D0AD0008E4AD000880
:1030F80070B50E461546016821B10C68ACB1A1B98E
:103108000C4612E00C4610E0114C7423224611497B
:10311800114804F061FB114804F05EFB742120465D
:1031280004F051FB234621461C4681B18A682A4097
:1031380004D04B68002BE7D030469847002CF1D0DC
:103148002368002BEFD0002CEDD12346EBE770BDB0
:1031580078AD0008FCAD0008209D0008E4AD00082B
:103168002DE9F8430F4616461C46D0F80480D0F8DF
:103178001090D8F8080004F095FDB6F5001F0FD0A0
:103188000546B6F5800F2DD0B4F1806F26D0B4F186
:10319800C06F25D0B4F1007F09D06FF015041AE094
:1031A8003946D8F8080005F0E2F8002413E00226B2
:1031B8004A460F492846FFF729FD0446A8B9D8F81A
:1031C8000810384604F073FD31462846FFF7E0FC46
:1031D8002846FFF7A9FC2046BDE8F8830126E7E763
:1031E8000326E5E76FF08504F5E76FF00F04F2E7D3
:1031F8006783000810B5044603695860054805F060
:10320800BBFD20B10449204604F0EEFE10BD6FF06E
:103218001200FBE7E4930008FD800008036993F8B7
:103228004C201AB11B6A0B600020704700B585B0AE
:10323800074B0293002001900090034601220549A4
:1032480005F0C7F86FF0040005B05DF804FB00BF97
:10325800A4AE0008A8970008164B984223D00AD9B4
:10326800154B984223D003F5C31303F52063984206
:1032780009D10A207047114B984216D0104B98423A
:1032880001D10420704710B584B00E4B029300247E
:1032980001940094234601220B49204605F099F831
:1032A800204604B010BD0620704702207047082051
:1032B800704700BF40420F0040E13300A086010084
:1032C800801A0600C4AE0008A8970008426803697F
:1032D800D26883F84E1021B9136823F440131360A1
:1032E800704700B587B0036804910393064B0293B7
:1032F80000200190009003460122044905F069F876
:1033080007B05DF804FB00BFE0AE0008A89700080E
:10331800F0B587B00E4643680569DF68002205925C
:1033280059681E4B9B68DB6853B3044605AA1B48C3
:103338009847002824DB2E6205F110064FF0FF3273
:103348004FF0FF33304601F09BFA3B6823F001034E
:103358003B6095F84E102046FFF7B8FF05992046C8
:1033680000F0E2F8044695F84D301BB13B6843F095
:1033780001033B60304601F0E7F9204607B0F0BD95
:10338800074B029300200190009003460122054953
:1033980005F01FF86FF00404EFE700BFE49300089E
:1033A800F4AE0008A897000870B584B004464668D3
:1033B80005694FF0FF320021284605F004FD336807
:1033C80020469847002385F84C3085F84E3005F1A3
:1033D80010000122114605F0F6FC174805F0CCFC58
:1033E80098B1204600F030F83069FFF735FF40F01B
:1033F80010012046FFF78CFF041E12DB012385F81D
:103408004C300024204604B070BD0C4B0293019050
:103418000090034601220A4904F0DBFF6FF0120412
:10342800F0E7084B02930020019000900346012228
:10343800034904F0CEFFE5E7E493000824AF000851
:10344800A897000844AF000830B585B0456800214A
:10345800686905F048F8041E0BDB6968114B9B6826
:103468001B6893B10F489847044670B9204605B0C9
:1034780030BD03940C4B029300200190009003464A
:1034880001220A4905F03FF8F0E7094B02930020B2
:103498000190009003460122044905F034F86FF0CA
:1034A8000404E3E7E493000820B00008B09700089C
:1034B80040B00008164B984223D00AD9154B9842C1
:1034C80023D003F5C31303F52063984209D10A20DA
:1034D8007047114B984216D0104B984201D10420E6
:1034E800704710B584B00E4B0293002401940094E9
:1034F800234601220B49204605F0C0F8204604B0B7
:1035080010BD06207047022070470820704700BF92
:1035180040420F0040E13300A0860100801A0600F7
:10352800C4AE0008B89700082DE9F04F85B08A4668
:103538004768D0F81090D7F80CB0002400E00134A8
:10354800FB69A3421AD9BE6904EB44054FEA850812
:1035580006EB85056868FFF7ADFFD9F820305B08F2
:1035680083EA500313F0070FE9D156F808305345A2
:10357800E5D1AB68CBF81030002056E0D9F8203000
:10358800C3F34203012B0ED0022B15D0314B02930B
:10359800002001900090034601222F4905F06EF8A3
:1035A8006FF0150041E041F25C2C4FF47A6740F26D
:1035B800E2464FF4FA7507E040F2145C4FF41677D0
:1035C8004FF4FA7640F27715012102E001310F2914
:1035D80030D8BAFBF1F2214BB3FBF2F3B7FBF3F2AD
:1035E800BCFBF3F0B5FBF3F4B6FBF3F3013AFF2AA7
:1035F800ECD80138FF28E9D80F2C19D8013B0F2B3C
:1036080016D84D1E1B0503F4700343EA0573240402
:1036180004F470242343120292B21343C0B203434A
:103628000F2909D8CBF81030002005B0BDE8F08F7D
:103638000131CCE70023F3E7094B02930020019006
:10364800009003460122044905F018F86FF01500B0
:10365800EBE700BF70B00008B897000800CA9A3BB3
:10366800ECB00008B0F5D07F17D2F8B504460D4687
:10367800164603090A4A52F823705FB1384605F026
:103688007BFB38B133462A4604F00F01384604F074
:1036980086FEF8BD6FF01200FBE76FF0150070476B
:1036A8006CB10008F8B506460F460024254616E01A
:1036B80002F01F0110292ED011291DD0F1B1530A93
:1036C8001B0103F4F873C2F3431002F01F022946EA
:1036D8001843FFF7C7FF002820DB0134E4B2BC42DF
:1036E8001BD206EBC40356F8342012F0100FDFD1BA
:1036F8005D6845F02005E2E75D68E0E7084C40F2C8
:10370800571322460749084804F066F840F2571153
:10371800204604F058F83025D1E70020F8BD00BF56
:1037280020B1000854B10008209D0008EBB170B525
:1037380004461E46002592B20C4B33F812202B4645
:1037480008462946FCF7F4FC0346090241EA1361DE
:103758001B027208981832462B4641F10001FCF70B
:10376800E7FCC0F31300E06070BD704794B3000835
:10377800012913D002290AD011B14FF40050704723
:1037880002680A4B9A420BD04FF480507047026887
:10379800064B9A4206D04FF44050704700207047BD
:1037A800002070474FF40050704700BF0080004071
:1037B80008B5024A05F08CF908BD00BF398B00082E
:1037C80008B5024A05F097F908BD00BF3F8B00080D
:1037D80030B585B0456804691448206005F0CCFA16
:1037E80050B12068E96883681B688BB19847044624
:1037F80080B9204605B030BD0D4B02930190009072
:10380800034601220B4905F0D3F96FF01204F0E7E3
:103818006FF05704084B0293002001900090034674
:103828000122044905F0C4F9E3E700BFE493000866
:1038380024AF000800980008ECB1000838B51C4611
:103848000025094B33F812202B46FCF771FC0902BE
:1038580041EA106100026308181822462B4641F11C
:103868000001FCF765FC38BD94B30008F0B589B0D9
:1038780043681E680269002900F0A18005460F46CA
:103888001068D9688368DB68D3B107AA9847041E13
:1038980018DB4C4B9E4220D0336823F4004333603E
:1038A800079B03EB5703B3FBF7F30F2B69D99BB2C5
:1038B800F360F3680F2B74D90024204609B0F0BDDB
:1038C8006FF05704404B029300200190009003468C
:1038D80001223E4905F06CF9EFE700240B2C0DD8C6
:1038E8003B46224607980021FFF7A8FFA0F5407342
:1038F800374A934202D90134E4B2EFE70C2C14D0D2
:10390800F36A23F00F032343F3623B4622460799E9
:103918003046FFF70BFFF368B3F5407F15D3F26825
:103928002C4B9A421FD80024C7E72B6804970393AF
:10393800294B02930020019000900346012223495D
:1039480005F036F96FF01504B7E7244CDC2322465E
:103958002349244803F040FF234803F03DFFDC21BE
:10396800204603F030FF1D4CE02322461F491D4826
:1039780003F032FF1E4803F02FFFE021204603F03A
:1039880022FF2B6804970393134B029300200190A6
:103998000090034601220D4905F00AF96FF015045D
:1039A8008BE70E4CFD23224612490E4803F014FF04
:1039B800114803F011FFFD21204603F004FF6FF0CA
:1039C80015047AE700800040F4AE0008009800086B
:1039D800FFFC0F00FEFF0F000CB2000824B2000825
:1039E80054B20008209D000870B2000888B2000890
:1039F800A8B20008C0B20008D8B200082DE9F84FF4
:103A080006460C46406805683369D3F804A00F7968
:103A1800012F15D0022F16D14FF4806B94F8059022
:103A28004946FFF7A5FE034694F80680B8F1020F51
:103A38000CD0B8F1040F0FD0002F4CD100200DE0AE
:103A48004FF4C06BEAE74FF0000BE7E70FB1002037
:103A580004E04FF0805001E04FF48050FA1ED2B2DB
:103A6800012A4DD917B1B8F1040F4CD0B3F5805FD6
:103A780036D0B3F5405F35D083B30323994545D19C
:103A8800594604F0C3FF804543D1E37973B1012B54
:103A98002AD0032B40D1254B9D4207D0A3F5744370
:103AA8009D4203D003F570539D4238D12B6823F013
:103AB80001032B602146304605F099F8002831DBD8
:103AC8002B6843F001032B6094E803008AE80300A5
:103AD8000020BDE8F88F4FF48050BFE70123CDE701
:103AE8000023CBE70223C9E7104A9542DED0A2F5AE
:103AF80074429542DAD002F570529542C9D1D5E7A1
:103B08006FF08500E5E76FF08500E2E76FF085006C
:103B1800DFE76FF08500DCE76FF08500D9E76FF02D
:103B28008500D6E76FF08500D3E700BF0038014075
:103B3800F0B585B0064645682C6803695F68236858
:103B480023F001032360686805F016F900285BD0AC
:103B5800A968686804F043FF54E8003F43F00C0389
:103B680044E80032002AF7D13946304605F03FF8DC
:103B7800002875DB2B7D1BB1A36843F00803A36005
:103B88006B7D1BB1636843F400436360AB7D1BB17D
:103B9800636843F480336360EB7D1BB1636843F46F
:103BA800003363602B7E23B32F4B9C4207D0A3F5D1
:103BB80074439C4203D003F570539C4230D1736820
:103BC8001A68936843F4804393606A7E236823F0FD
:103BD800787343EA42532360AA7E236823F4F813D8
:103BE80043EA02432360EB7E1BB1A36843F400431E
:103BF800A3602B7F1BB1236843F000532360236825
:103C080043F0010323601BE0184B029301900090DE
:103C180003460122164904F0CBFF6FF012001DE0A5
:103C280033680393134B02930020019000900346DE
:103C380001220F4904F0BCFF6FF015000EE033B904
:103C4800E36913F40013FAD00123F8E72AB9E2690B
:103C580012F48002FAD01A46F8E7002005B0F0BD49
:103C68006FF01500FAE700BF00380140ECB2000819
:103C78000098000808B300084FF0E0239969186914
:103C88009A6909B90C4B19680AB90B4B1A6810F4F0
:103C9800803F01D1914208D208490B680648006864
:103CA80003440B604FF0E0231B69034B1B689B1A0E
:103CB800024A106818447047300400202404002089
:103CC8000A4B102283F82320094B4FF496521A60AE
:103CD8000020084B18604FF0E02341F2BF225A61E0
:103CE80098611A6942F007021A61704700ED00E016
:103CF8003004002024040020684620F007018D4687
:103D080001B5FFF7B9FF0E4B18680E4A1168084451
:103D1800106000221A600C4A1368C01A0B49A1FBF4
:103D28000010400A4FF4965101FB0033136002F073
:103D38004BFAFDF7C1FEBDE801408546704700BF5C
:103D4800240400202C04002028040020B5814E1BE8
:103D580070B5002951D0B0F1FF3F43D04E4B1D68DC
:103D6800012852DD40F6A7539842A8BF1846441EC2
:103D7800EFF31186102383F31288BFF36F8F474840
:103D880002F06EF8002842D0444802F093F8FFF79A
:103D980073FF4FF0E0239969414B1A68104418608B
:103DA800404B00221A60404B1A68831A3ED44FF4E5
:103DB800965C0CFB043303F595531F333B4CA4FB73
:103DC80003435B0A121A0CFB03221446B2F5806FF8
:103DD80038BF4FF48064364B9A4244D92E4B344A4C
:103DE8001A6027E04FF0E022136923F00103136102
:103DF800294B4FF07F421A6034E0274B1D68B0F121
:103E0800FF3FADD140F6A650ACE70024B0E7294CFF
:103E1800882322462849294803F0DEFC1F49284800
:103E280003F0DAFC8821204603F0CDFC1A4B4FF44E
:103E380080621A604FF0E0239C69174A1268013AC1
:103E48005A6100229A61A14210D22D1B0D440544EB
:103E5800134B1D60114802F013F860B186F3118806
:103E6800BFF36F8F70BD0C4B1C60E3E7091B084460
:103E78000B4B1860EEE70F4C4FF49A73224611492A
:103E88000E4803F0A9FC05490F4803F0A5FC4FF4C0
:103E98009A71204603F097FC300400203404002077
:103EA8002C0400202404002028040020B5814E1B87
:103EB80080E8FF00709F0008A09F0008209D000870
:103EC800B89F0008D09F0008E89F000870B5EFF37E
:103ED8001186102383F31288BFF36F8F1E4801F0F9
:103EE800BFFFC0B11C4D284601F0E4FF1B4B1C6806
:103EF8001B4B1B68E41AFFF7BFFE0444284601F079
:103F0800BFFFB8B186F31188BFF36F8F154BA3FBC2
:103F18000430400A70BD144C8823224613491448C3
:103F280003F05AFC0C49134803F056FC882120463C
:103F380003F049FC0C4C4FF49A7322460E490C4886
:103F480003F04AFC29460D4803F046FC4FF49A71E9
:103F5800204603F038FC00BF340400202C04002065
:103F680028040020B5814E1B709F0008A09F000800
:103F7800209D0008B89F0008D09F0008E89F00080F
:103F88004FF0B0439968DB6803F0030311F00C01AC
:103F98000AD00C2906D0042947D008293BD0002292
:103FA800104626E0012BF6D14FF0B0431B6813F002
:103FB80008030DD04FF0B0431B6813F0080324D159
:103FC8004FF0B042D2F894202E4A52F823200EE047
:103FD8004FF0B042126812F0080F12D14FF0B04300
:103FE800D3F89430C3F30323264A52F82320D1B1DF
:103FF80000204FF0B0439B6803F00C030C2B1AD041
:1040080070474FF0B0421268EEE74FF0B0431B68BC
:10401800C3F30313D8E74FF0B0431A6812F48012C1
:1040280006D11948E5E71046E3E700221748E0E71C
:1040380000221748DDE74FF0B043DB6803F00303C5
:10404800022B09D0032B08D14FF0B0431B6813F49F
:10405800801F15D10C4A00E00C4A4FF0B041CB68E4
:10406800C3F3062303FB02F2CB68C3F30213013345
:10407800B2FBF3F2C868400F0130B2FBF0F0BFE7C3
:10408800034AEAE7ACB3000800127A000024F400FF
:1040980000093D0010B48BB00446364B93E8070086
:1040A8000DF1280C0CE907000DF1100C03F10C02BE
:1040B80007CA8CE807000DF1040C183393E80700D1
:1040C8008CE80700002C50D022462B4B1B6803F4C9
:1040D800C063B3F5007F04D0284B9C4234D900203C
:1040E80044E0274B9C4207D900203FE00AAA02EB94
:1040F800830353F8241C13E00023022B09D80AA9D0
:1041080001EB830151F80C1C9142EFD20133DBB271
:10411800F3E700202AE00AAA02EB830353F8241CE1
:10412800184A136823F007030B4313600222154B48
:104138001B6803F00703013A994201D0002AF6D11F
:10414800994210D0002011E00023022B09D80AA9B7
:1041580001EB830151F8181C9142DCD20133DBB228
:10416800F3E7002002E0012000E000200BB010BCC3
:10417800704700BF18980008000400580024F40095
:10418800006CDC020040005870B5044643691BB35C
:104198009847054648B100F1FF03FE2B0CD845426D
:1041A800FF2D00DDFF25E3681D70E268537843F0BA
:1041B80001035370684270BD084E2E2332460849E9
:1041C800084803F009FB2A462168074803F004FB66
:1041D8002E21304603F0F7FA0025E6E72CB4000854
:1041E80068B40008209D000880B4000804280CD892
:1041F800DFE800F0030D0507090006487047064888
:104208007047064870470648704706487047064892
:10421800704700BFA8B40008CCB40008DCB400089C
:10422800E8B40008F8B40008B8B4000830B108B51C
:1042380004F0FBFD20B1037823B108BD02487047A4
:104248000148FAE70048F8E708B5000810B584B057
:104258000446FDF725F8064B0293002001900090D4
:1042680003460122034904F097FD204604F0A3FD0C
:1042780010B50008E09700082DE9F04186B0044623
:104288000D46EFF31188102383F31288BFF36F8F65
:10429800274FBE68FFF7AAFF3B7C05930490039461
:1042A800244B0293002001900090034601222249EA
:1042B80004F072FD1DB1EB69C3F30803F3B930468E
:1042C800FFF7B4FF049003961C4B02930020019063
:1042D800009003460122184904F05EFD2946204655
:1042E800FFF7B4FF042C14D088F31188BFF36F8F45
:1042F8003046FDF7A1FF06B0BDE8F081104B0293F0
:10430800002001900090034601220B4904F044FD6F
:10431800D5E70C4C872322460B490C4803F05CFA7E
:104328000B4803F059FA8721204603F04CFA00BFE6
:104338003804002020B50008E09700086CB5000894
:1043480048B5000884B50008A8B50008209D0008F5
:10435800C8B5000810B586B00F4C04EBC01400EBCC
:10436800800C0E4B03EB8C03002205920121049173
:104378000F210391029201920093094B4FF480722E
:10438800084901EB8C11204600F00CFB637B23F0FD
:104398000403637306B010BDA80000203804002091
:1043A80081460008C00C00200C4B00E020330C4A6A
:1043B800934203D80A4A9342F8D3704710B5094C80
:1043C800CC2322460849094803F006FA084803F0B6
:1043D80003FACC21204603F0F6F900BFE493000865
:1043E8002495000800B6000850B40008209D000875
:1043F800FCA0000838B505460B4B53F8204002E0F6
:104408002368984708346B1C074A52F82330A342A4
:1044180009D960680028F3D0037F13F0010FF1D1A8
:10442800FFF7B2FEEEE738BD5CB6000808B553EA00
:10443800020102D101F01CFA08BD0249183001F04E
:1044480063FDF9E70B8F000810B586B0294C14E01E
:10445800636A0593236A0493E3690393A369029348
:104468006369019323690093E368A268616820681F
:1044780000F098FA23685C6530341F4B9C4206D8DC
:104488001D4B9C42E4D300F021FF1A4C0EE01B4C5C
:10449800442322461A491B4803F09EF91A4803F0A0
:1044A8009BF94421204603F08EF93034124B9C428C
:1044B8000ED8114B9C4219D2A26AE36AB3F1FF3FAE
:1044C80008BFB2F1FF3FF0D02068FFF7AFFFECE77D
:1044D8000A4C682322460A490A4803F07DF90A482B
:1044E80003F07AF96821204603F06DF900F06EFFB9
:1044F80006B010BD149700081497000800B600080D
:1045080024B60008209D0008FCA0000808B50A4B46
:1045180001221A700320FFF76DFF01F077FF0420D6
:10452800FFF768FFFFF790FFFCF728F8034A137BB3
:1045380023F00103137308BD77040020280100202D
:1045480008B50146014A0248FDF766FF154500080F
:104558002801002010B50446FFF7FCFE0B4901EBCB
:10456800C4110B4A04EB840302EB8303D9601C7467
:1045780004EB4411074B03EB811303F5046304EBCD
:10458800840402EB8402536010BD00BFA800002021
:10459800380400208004002070B586B000F0CAFFFF
:1045A800104D114B5D61114B0593012304930024B9
:1045B80003940294019400940D4B4FF480620D49CA
:1045C800284600F0EFF906466B7B23F004036B7373
:1045D800284600F0EBFC2046FFF7BCFF304606B04B
:1045E80070BD00BF280100203804002054B6000820
:1045F80015450008000E002008B50020FFF7FAFE58
:104608001A4B83F308881A4C636943F40073636197
:10461800F02384F822300023E37723766376A376A9
:1046280084F82030636A43F4E0236362FDF7D4FD25
:10463800FDF710FF4FF0FF33A362E362FEF744F982
:10464800FDF738FFFCF7E8FD0A4800F007FAFFF726
:10465800ABFEFCF715FC0120FFF7CCFE0220FFF7AC
:10466800C9FEFFF799FFFFF76BFF00BFC00C0020E2
:1046780000ED00E0A801002008B50D4B9B6893F9F8
:104688000E30002B09DBEFF31183102383F312881C
:10469800BFF36F8F03F066FAF5E7064C1C2322463A
:1046A8000549064803F098F81C21204603F08BF8CA
:1046B8003804002078B600089CB60008209D000841
:1046C800EFF31183102282F31288BFF36F8F0BB1BF
:1046D80000BF704710B5074C6323224606490748B8
:1046E80003F07AF8064803F077F86321204603F0D0
:1046F8006AF800BF78B60008C4B60008209D000814
:10470800E8B60008836863B14268036813605A60BA
:10471800002303604360427B22F0020242738360FD
:10472800704710B5054C912322460549054803F00A
:1047380053F89121204603F046F800BF18B7000847
:1047480044B70008209D00082DE9F0410446EFF326
:104758001186102383F31288BFF36F8F3E4801F050
:104768007FFB002832D007463B4801F0A3FBEFF35C
:104778001183102282F31288BFF36F8F83F311889D
:10478800BFF36F8F002B30D02568AC423BD0B5F11A
:10479800000818BF4FF00108002D36D1B8F1000FFE
:1047A8003BD1A368E26893423DD001221344A36041
:1047B8000027002F39D1284801F062FB002839D0A2
:1047C80086F31188BFF36F8FBDE8F081234C8823EF
:1047D80022462349234802F0FFFF1F49224802F0DE
:1047E800FBFF8821204602F0EEFF204CA82322463A
:1047F8001F491C4802F0F0FF1E4802F0EDFFA821F7
:10480800204602F0E0FF0025C1E72846FFF77AFFBF
:1048180005F1180001F06CFCC0E70023AB672846DF
:1048280000F0C4FBC5E70022C0E731460A4800F0A3
:10483800EFFCC9E7094C4FF49A7322460E49094820
:1048480002F0CAFF04490D4802F0C6FF4FF49A71FE
:10485800204602F0B8FF00BF58040020709F0008EF
:10486800A09F0008209D0008B89F000818B70008FE
:104878005CB7000874B70008D09F0008E89F0008DC
:10488800F0B583B0044616461D46EFF3058111B115
:1048980055EA02031DD1EFF31187102383F3128821
:1048A800BFF36F8F354801F0DBFA00B3334801F0EE
:1048B80001FBA16800293AD00139A1602F4801F015
:1048C800DFFA18B387F31188BFF36F8F002003B0A6
:1048D800F0BD2B4C882322462A492B4802F07CFF46
:1048E8002A4802F079FF8821204602F06CFF284C04
:1048F800882322462749244802F06EFF1F4926488C
:1049080002F06AFF8821204602F05DFF204C4FF438
:104918009A73224621491C4802F05EFF1749204835
:1049280002F05AFF4FF49A71204602F04CFF55EA04
:1049380006031BD1114801F0A3FA30B187F311889F
:10494800BFF36F8F6FF00F00C1E7114C4FF49A73EC
:10495800224612490C4802F03FFF0849104802F06D
:104968003BFF4FF49A71204602F02DFF0096019507
:1049780022463946014800F0CBFBA8E7580400203E
:1049880078B7000898B70008209D000874B7000899
:10499800709F0008A09F0008B89F0008D09F0008DB
:1049A800E89F00082DE9F04184B004460D46904682
:1049B8001F460D9E0F2E2AD006F110031E2B2AD853
:1049C80004F15803A365E3650E9B04223146204693
:1049D80004F02DFA42462946204604F003FA06461A
:1049E8000C9B02930B9B01930A9B00933B46024648
:1049F80029462046FDF7D0FC00236365114B9B68D0
:104A0800EBB1DB6EE366304604B0BDE8F0810E4BD7
:104A18009F42D1D1D4E70D4C40F2452322460C49A0
:104A28000C4802F0D9FE6FF00F030E2231460A48F7
:104A380002F0D2FE40F24521204602F0C4FEE366B1
:104A4800E1E700BF3804002081460008E8B7000805
:104A58000CB80008209D00088CB800080123437397
:104A68000373002303664366C366014B986070476F
:104A780038040020836863B14268036813605A6091
:104A8800002303604360427B22F00202427383608A
:104A9800704710B5054C912322460549054802F098
:104AA8009BFE9121204602F08EFE00BF18B7000839
:104AB80044B70008209D0008014628B1134B9B68A5
:104AC8005B7B13F0090F12D0104A936859676FF097
:104AD8000A0199670E494B6843F080534B600023E5
:104AE80083F31188BFF36F8F9368986F704710B581
:104AF800084CD22322460849084802F06DFE0848AF
:104B080002F06AFED221204602F05DFE3804002041
:104B180000ED00E0C0B80008ECB80008209D0008CF
:104B280058B90008437B90F90D20002A6EDB13F07A
:104B38001F0F6BD110B563F07F034373344B98425A
:104B480006D0344A52F8183F934219D1002317E08F
:104B5800314C4F2322463149314802F03DFE4F2166
:104B6800204602F030FE5A684260036010605860C8
:104B78001EE01A462749C9698A420FD01B687BB1D3
:104B880073B190F90E1093F90E209142F1D0521A98
:104B9800002AE8DC1A46002BECD1F0E70023EEE708
:104BA8001C4BDA6903F11801016042601060D8619A
:104BB800184B53F8184F9C420FD074B1154B9B6893
:104BC80073B15A7B12F01F0F18D1DA897F2A15D9D1
:104BD800A2699AB90F4A536117E00E4BDC68EDE7FA
:104BE800104CED23224610490D4802F0F5FD0F4800
:104BF80002F0F2FDED21204602F0E5FDA34202D0CD
:104C0800204601F07FF8034B5C6110BD704700BF80
:104C1800A80000203804002080B90008A4B90008C2
:104C2800209D0008C8B90008F4B9000874B7000846
:104C380010B5437B90F90D20002A15DB234B9A68A9
:104C480053F8184F9C4228D03CB3824236D03AB32E
:104C5800537B13F01F0F31D1D3897F2B2ED9A36932
:104C680063BB1A4B5A6130E003F07F034373184B60
:104C7800984207D04268036813605A6000230360B3
:104C88004360DBE7134C562322461349134802F0CE
:104C9800A3FD5621204602F096FD0C4BDC68D4E7B4
:104CA8000F4CED2322460F490C4802F095FD0E48A3
:104CB80002F092FDED21204602F085FDA24202D0CD
:104CC800204601F01FF8014B5C6110BD380400203C
:104CD800A800002080B90008A4B90008209D000899
:104CE800C8B90008F4B9000874B700082DE9F843FA
:104CF80005460C464D4B9E68737B13F0600F28D019
:104D080013F0200F2FD008271F4222D13B43737383
:104D180013F0800F29D1082F40D04FF00009434BE2
:104D280053F8188F984555D0B8F1000F52D03F4B23
:104D38009B68434502D0404600F0E4FF3B4BC3F874
:104D48001480102F05D0304602F002FFB9F1000F91
:104D580044D1374801F094F8002843D084F31188EF
:104D6800BFF36F8F5CE01027CEE703F07F03737308
:104D7800304B9E4207D07268336813605A60002334
:104D880033607360C7E72C4C562322462B492C48C6
:104D980002F022FD5621204602F015FDB36813B13A
:104DA8003046FFF767FE304604F080F806F15800F9
:104DB80004F081F81D4B9B689E4202D04FF0000919
:104DC800ADE7EFF3058313B94FF00009A7E74FF0FC
:104DD8000109A4E7154BD3F80C80A8E71948FFF799
:104DE8003DFEB6E7184C4FF49A732246174914480B
:104DF80002F0F2FC0E49164802F0EEFC4FF49A71EC
:104E0800204602F0E0FCEFF31184102383F31288AC
:104E1800BFF36F8FFFF754FC84F31188BFF36F8FD4
:104E28006B7B13F0600FEED1BDE8F88338040020E7
:104E38005C040020A800002080B90008A4B900087C
:104E4800209D0008A8010020709F0008D09F00083E
:104E5800E89F0008B3F1FF3F08BFB2F1FF3F00D160
:104E6800704708B50249183001F04EF808BD00BF78
:104E78000B8F000810B5437B90F90D20002A0DDB3D
:104E8800437B63F07F034373404B98421FD0404AF3
:104E980052F8183F934232D1002330E003F07F03E9
:104EA80043733A4B984207D04268036813605A60CC
:104EB800002303604360E3E7364C56232246364915
:104EC800364802F089FC5621204602F07CFC314C21
:104ED8004F2322463049314802F07EFC4F212046BC
:104EE80002F071FC5A6842600360106058601EE06E
:104EF8001A462749C9698A420FD01B687BB173B12A
:104F080090F90E1093F90E209142F1D0521A002A0E
:104F1800E8DC1A46002BECD1F0E70023EEE71C4B47
:104F2800DA6903F11801016042601060D861184B1A
:104F38009A6853F8184F9C420FD074B182421DD022
:104F480072B1537B13F01F0F18D1D3897F2B15D95A
:104F5800A3699BB90E4B5A6117E00D4BDC68EDE76E
:104F68000F4CED2322460F490C4802F035FC0E4841
:104F780002F032FCED21204602F025FCA24202D0CC
:104F8800204600F0BFFE024B5C6110BDA800002067
:104F98003804002080B90008A4B90008209D000842
:104FA800C8B90008F4B9000874B7000870B5054618
:104FB800EFF31186102383F31288BFF36F8F1E4817
:104FC80000F04EFF20B100241B4800F073FF17E0EB
:104FD8001A4C882322461A491A4802F0FDFB164942
:104FE800194802F0F9FB8821204602F0ECFB124830
:104FF80000F046FF70B186F31188BFF36F8F01246C
:10500800CCB9284603F01EFF0028F0D12846FFF748
:1050180089FDECE7094C4FF49A7322460B4909487D
:1050280002F0DAFB04490A4802F0D6FB4FF49A7101
:10503800204602F0C8FB70BD5C040020709F000889
:10504800A09F0008209D0008B89F0008D09F000876
:10505800E89F000870B50446EFF31186102383F328
:105068001288BFF36F8F234800F0FAFE20B10025A5
:10507800204800F01FFF1EE01F4C882322461F49CE
:105088001F4802F0A9FB1B491E4802F0A5FB882116
:10509800204602F098FB637B23F0040363732046E9
:1050A800FFF740FD134800F0EBFE80B186F311884E
:1050B800BFF36F8F0125DDB9637B13F0280FF1D1A2
:1050C800A368002BE7D02046FFF7D4FCE3E70A4C9F
:1050D8004FF49A7322460C49094802F07DFB0549B2
:1050E8000A4802F079FB4FF49A71204602F06BFBF4
:1050F80070BD00BF5C040020709F0008A09F0008DE
:10510800209D0008B89F0008D09F0008E89F00086D
:10511800F8B5344B9D68344B1D60344B984223D00E
:1051280004460F461646EFF31183102383F31288C3
:10513800BFF36F8F2D4800F093FE10B32B4800F09B
:10514800B9FEDDE9062331462648806803F0CDFE26
:10515800204600F095FE18B3244800F091FE80B375
:105168003846FFF7A9FCF8BD214C40F265232246DA
:105178002049214802F030FB40F26521204602F028
:1051880022FB1E4C882322461D491B4802F024FBA3
:1051980016491C4802F020FB8821204602F013FB28
:1051A800164D4FF4B7732A461749134802F014FBFB
:1051B8002146164802F010FB4FF4B771284602F05A
:1051C80002FB0E4C4FF4B77322460F490A4802F00F
:1051D80003FB06490D4802F0FFFA4FF4B771204669
:1051E80002F0F1FA38040020600400205C0400207A
:1051F80080B900081CBA0008209D0008709F0008AC
:10520800A09F0008B89F0008D09F0008E89F0008EA
:1052180070B505460E46F9B9EFF30583E3B91B4BA4
:105228005A699B689A4217D000F02AFE18B1304696
:10523800FFF742FC18E0164C4FF4B77322461549A5
:10524800154802F0C9FA2946144802F0C5FA4FF485
:10525800B771204602F0B7FA284600F011FE20B1D7
:1052680086F31188BFF36F8F70BD094C4FF49A73A2
:1052780022460849084802F0AFFA2946074802F0D2
:10528800ABFA4FF49A71204602F09DFA38040020D8
:10529800709F0008D09F0008209D0008E89F000824
:1052A80008B5034650B9EFF305823AB9064A516981
:1052B8009268914202D0FFF7FFFB03E083F3118865
:1052C800BFF36F8F08BD00BF3804002038B5EFF377
:1052D8001185102383F31288BFF36F8F2F4800F0D6
:1052E800BFFD20B100242D4800F0E4FD33E02C4C34
:1052F800882322462B492C4802F06EFA27492B486E
:1053080002F06AFA8821204602F05DFA284C40F241
:10531800F92322462749244802F05EFA264802F07B
:105328005BFA40F2F921204602F04DFA204C40F297
:10533800FA23224621491C4802F04EFA1E4802F080
:105348004BFA40F2FA21204602F03DFA85F3118823
:10535800BFF36F8F012404BBEFF30583002BD5D176
:10536800174B9A68D37B012BE0D0013BD3730B48D2
:1053780000F086FD0028E9D1094C4FF49A732246C3
:105388001049094802F028FA04490F4802F024FAA3
:105398004FF49A71204602F016FA38BD5C040020DA
:1053A800709F0008A09F0008209D0008B89F000873
:1053B80080B9000858BA000874B700086CBA000829
:1053C80038040020D09F0008E89F000838B5EFF3A4
:1053D8001185102383F31288BFF36F8F474800F0BD
:1053E8003FFD20B10024454800F064FD4FE0444CE7
:1053F800882322464349444802F0EEF93F4943488E
:1054080002F0EAF98821204602F0DDF9404C40F22A
:10541800053322463F493C4802F0DEF93E4802F097
:10542800DBF940F20531204602F0CDF9384C40F264
:10543800063322463949344802F0CEF9364802F09C
:10544800CBF940F20631204602F0BDF9344AD4685F
:1054580031E0344CED23224633492B4802F0BCF9A5
:105468002D4802F0B9F9ED21204602F0ACF9A3422B
:1054780002D0204600F046FC294B5C611F4800F032
:10548800FFFC38B385F31188BFF36F8F0124002C1C
:1054980031D1234B9B68DA7B002AB7D0EFF3058123
:1054A8000029C3D10132DA731D4A52F8184F9442C9
:1054B800CCD0002CCAD0002BCBD05A7B12F01F0FB7
:1054C800D5D1DA897F2AD2D9A269002ACFD1144A44
:1054D8005361D3E70A4C4FF49A73224613490A489A
:1054E80002F07AF90549124802F076F94FF49A71F8
:1054F800204602F068F903F00AFD38BD5C0400207C
:10550800709F0008A09F0008209D0008B89F000811
:1055180080B90008A0BA000874B7000858BA000893
:1055280038040020C8B90008F4B90008D09F000862
:10553800E89F000808B5024803F0F4FC08BD00BF66
:105548004C04002038B5EFF30583C3B9EFF3118499
:10555800102383F31288BFF36F8F404800F080FC5C
:10556800E8B13E4800F0A6FC3D4B9A68DB699A42D8
:1055780024D01368516812680A60516025E0394CDC
:1055880040F22C4322463849384802F025F9384879
:1055980002F022F940F22C41204602F014F9354C71
:1055A800882322463449314802F016F92B493348FA
:1055B80002F012F98821204602F005F90023D9E704
:1055C800274AD269934212D01B6893B1244A906843
:1055D80090F90E1093F90E209142F1D0521A002A38
:1055E800EEDD5A6842600360106058600AE00023EC
:1055F800EBE71B4B9A68D96903F1180010605160FA
:105608000A60DA61164B53F8185F9D4211D085B1D4
:10561800134B9B689D4202D0284600F073FB104B49
:105628005D610E4800F02CFC30B12046FFF744FACB
:1056380038BD0B4BDD68EBE70E4C4FF4B7732246D1
:105648000F490A4802F0C8F804490E4802F0C4F8A5
:105658004FF4B771204602F0B6F800BF5C04002092
:105668003804002080B9000858BA0008209D0008B6
:1056780074B70008709F0008A09F0008B89F000832
:10568800D09F0008E89F00082DE9F041EFF305835B
:10569800002B3AD105460C4651EA000345D0EFF3FA
:1056A8001188102383F31288BFF36F8F344800F0FA
:1056B800D7FB00283DD0324F384600F0FBFB314E77
:1056C800B068314B1860FFF7B3FAB0682A46234632
:1056D8002E49183000F018FC0446B268537B43F09A
:1056E80004035373384600F0CBFB88B34046FFF7FA
:1056F800E3F9244B9B689A6ADB6AB3F1004F08BF51
:10570800002A36D00020BDE8F081214C40F2444305
:1057180022462049204802F05FF8204802F05CF851
:1057280040F24441204602F04EF8FFF70BFF0020FC
:10573800E9E71B4C882322461A49174802F04CF81F
:105748000F49194802F048F88821204602F03BF832
:10575800134C4FF4B773224614490F4802F03CF833
:105768003946134802F038F84FF4B771204602F072
:105778002AF803F00DFC201A0028C4DC0020C2E738
:105788005C04002038040020600400200B8F00080F
:1057980080B9000858BA0008209D000874B70008AE
:1057A800709F0008A09F0008B89F0008D09F0008BD
:1057B800E89F000838B5EFF30583BBBB04460D46E8
:1057C800FFF762FF03462046B5F1FF3F08BFB4F17B
:1057D800FF3F3ED0DA1713F1090042F100030A280F
:1057E80073F1000234D36FF00A0282424FF00402D0
:1057F8009A412FD30021C21828D20A441749A1FB85
:10580800024525F0030404EB9504121B801A63F18A
:1058180000034FF0CC3200FB02F201FB0323A0FB94
:1058280001010B44400840EAC37012E00C4C40F2FE
:105838006E4322460B490C4801F0CEFF0B4801F09D
:10584800CBFF40F26E41204601F0BDFF0121D4E7B5
:10585800002038BD6FF00040FBE700BFCDCCCCCCBA
:1058680080B9000858BA0008209D000874B70008DD
:1058780038B50446EFF31185102383F31288BFF37C
:105888006F8F224800F0ECFAB0B1204800F012FB0C
:10589800637B13F0040F1ED004F1180000F028FCFD
:1058A800637B23F0040363732046FFF73BF9294623
:1058B8001648FFF7ADFC38BD154C8823224615491C
:1058C800154801F089FF1149144801F085FF882126
:1058D800204601F078FF0D4800F0D2FA20B185F398
:1058E8001188BFF36F8FE6E7094C4FF49A7322468D
:1058F8000B49094801F070FF04490A4801F06CFFA0
:105908004FF49A71204601F05EFF00BF5C0400204E
:10591800709F0008A09F0008209D0008B89F0008FD
:10592800D09F0008E89F0008014B9868704700BFA7
:10593800380400202DE9F0470446067BEFF3118771
:10594800102383F31288BFF36F8FB04800F088FAF2
:1059580000B306F001068046AC4800F0ABFA657B60
:1059680015F0080F25D1BA4604F15809204603F06E
:1059780069FA002855D045F020056573EFF30583D3
:105988008BB339462046FFF7B1F9002E40F02D8140
:10599800BDE8F0879E4C882322469E499E4801F028
:1059A8001BFF9A499D4801F017FF8821204601F006
:1059B8000AFF964800F064FA20B187F31188BFF314
:1059C8006F8FE5E7924C4FF49A73224694499248B8
:1059D80001F002FF8D49934801F0FEFE4FF49A71E1
:1059E800204601F0F0FE49468F4B986803F02CFAE8
:1059F800864800F045FA18B13846FFF75DF8C4E765
:105A0800834C4FF4B77322468549834801F0E4FE7E
:105A18007E49844801F0E0FE4FF4B771204601F05A
:105A2800D2FE45F00803637313F0800F34D1A368E6
:105A380013B12046FFF71EF804F1180000F058FBD8
:105A4800484603F038FA784B9A6894423FD04FF0B2
:105A58000008754B53F8185F9D423FD0002D3DD08C
:105A6800AA4202D0284600F04DF96F4B5D612046EE
:105A780002F06EF8B8F1000F33D16B4B9B689C4273
:105A880033D0624800F0FCF9002800F09D8087F3CD
:105A98001188BFF36F8F78E705F07F0545F008059B
:105AA8006573624B9C4207D06268236813605A6032
:105AB800002323606360BAE75D4C562322465D49A4
:105AC800554801F089FE5621204601F07CFEEFF38F
